:020000040800F2
:10000000000C002047010008A9010008AB0100080E
:10001000AB010008AB010008AB01000800000000C4
:10002000000000000000000000000000BB0100080C
:10003000BD010008000000008F4801080F02000801
:1000400067010008670100086701000867010008F0
:1000500067010008670100086701000867010008E0
:1000600067010008670100081F0200086701000817
:1000700067010008670100086701000867010008C0
:1000800067010008670100086701000867010008B0
:10009000C101000867010008670100086701000846
:1000A0006701000867010008670100086701000890
:1000B000ED010008EF0100080D02000867010008CB
:1000C0006701000867010008670100086701000870
:1000D00067010008D101000867010008E10100087C
:1000E0006701000867010008670100086701000850
:1000F0006701000867010008670100086701000840
:10010000670100086701000867010008670100082F
:10011000670100086701000867010008670100081F
:10012000670100086701000867010008670100080F
:10013000DFF80CD015F066F800480047750100089C
:1001400078480020704708488047084981F30888AC
:1001500007480047FEE7FEE7FEE7FEE7FEE7FEE7AB
:10016000FEE7FEE7FEE7FEE74501000878480020CD
:100170003101000810B5002410F022FB11F0FCF84A
:10018000482010F021FB11F0B7FB0D23044A002199
:10019000044813F01FFC044611F0D6FC002010BDEB
:1001A00064020020C9240008704700BFFEE700BFBA
:1001B000FEE700BFFEE700BFFEE7704770477047ED
:1001C00010B511F0B3FB02F055F911F0CAFB10BDE8
:1001D00010B511F0ABFB0CF0F6F811F0C2FB10BD3E
:1001E00010B511F0A3FB11F0BCFB10BD704710B5AA
:1001F00011F09CFB012111480FF07CFD1049D1F852
:10020000C40B13F0D1FA11F0ACFB10BD704710B560
:1002100011F08CFB11F0CFFC11F0A3FB10BD10B559
:1002200011F084FB10200EF0C7FC20B110200EF05E
:10023000D4FC0BF0A0FE11F094FB10BD00040040B4
:100240007815002008B5002000906B461C22642120
:10025000FE4812F079FAFD494C3988649DF8000097
:1002600008B100F085FB08BD08B5F9480BF0CCFEDD
:1002700008B900F07DFBF648006848F23161884219
:1002800003D1F348406852280FD04FF0FF30F049B7
:1002900088600120C860801E0861486148F23160B2
:1002A0000860522048600BF0BEFE6946002012F044
:1002B00081FBE749C86108BD08B5E4484C380BF03C
:1002C000C7FE08B900F054FBE0484C38006848F21B
:1002D0003161884204D1DD484C38406852281FD033
:1002E0008020DA494C39C863812088630120C860C6
:1002F000642008610120086248F2316008605220E1
:100300004860012048634FF42A7008640120C862E5
:1003100048640BF0ACFE0120CC494C3981F8010C4B
:10032000CA484C38C06820B1C8484C38C068FE285C
:1003300003D90120C5494C39C860C4484C3800690C
:10034000142817D0C1484C380069322812D0BF4851
:100350004C38006964280DD0BC484C3800697D28B1
:1003600008D0BA484C380069FA2803D06420B7494D
:100370004C390861B5484C384069401C20B1B3483D
:100380004C38406901280CD90120B0494C394861EA
:100390000620B0490871012008600BF068FE0BF0E0
:1003A000D7FEAA484C388069401C20B1A7484C3879
:1003B0008069042843D90420A4494C398861652008
:1003C000A5490860312008710A208860D020C860E3
:1003D00001200861662088670B219F48C0F88010C3
:1003E000312180F87C109021C0F884100121C0F8E0
:1003F0008810881E9849C1F8F000D0219648C0F8AE
:10040000FC10122180F8F4100A21C0F8F810012124
:10041000C0F80011881E9049C1F8680112218E4869
:1004200080F86C119021C0F874110B21C0F8701184
:100430000121C0F878110BF04BFE0BF018FE834839
:100440004C38406B401C20B180484C38406B012830
:1004500003D901207D494C3948637C484C38006BF6
:10046000401C20B179484C38006B012803D900208A
:1004700076494C3908636946012012F09BFA7349AA
:100480004C39C1F83C0B002013F059F86F494C3936
:10049000C1F8600B002013F052F86C494C39C1F8D8
:1004A000980B002013F04BF868494C39C1F89C0BAD
:1004B000002013F044F865494C39C1F87C0B00204A
:1004C00013F03DF861494C39C1F8C40B08BD10B5B3
:1004D0005E484C384069401C68B15C484C38406903
:1004E000012808D859484C3841695A480BF013FE86
:1004F00008B900F03DFA55484C388069401CC8B333
:1005000052484C388069042834D850484C388169A6
:1005100051480BF0C1FD08B900F02AFA002024E090
:10052000FF21C0EB00124C4B03EBC20282F83110EA
:100530000021C0EB001203EBC20282F83010C0EBC6
:1005400000111A4602EBC10189680C2902D1404909
:10055000096901E03E49896849B2C0EB00123E4B8F
:1005600003EBC20282F85010401C38494C398969AB
:100570008142D5D810BD08B538480BF00DFE08B93A
:1005800000F0F6F93548006848F23161884203D13D
:1005900032484068522858D0AA203049C1F85C013E
:1005A000C1F80C024FF0FF312C48C0F86011C0F8C0
:1005B00010120521C0F86C110121C0F87011092139
:1005C000C0F874111E21C0F878110A21C0F81C125D
:1005D0000121C0F820120421C0F824121E21C0F805
:1005E00028120721C0F87C110021C0F880111621C3
:1005F000C0F884110021C0F888110721C0F82C121E
:100600000021C0F830121621C0F834120021C0F8C1
:1006100038124FF49671C0F804124FF48271C0F88A
:1006200008128C21C0F8B412C821C0F8B812AA2050
:100630000A49C86796208860C820C86032200861CF
:10064000AA20C1F880000A200AE098E0C415002022
:10065000581500207C2100209821002078230020BC
:10066000C1F890000120C1F89400CC20C1F88400AA
:100670000A20C1F89C000020C1F8A0000120C86336
:1006800008644864CC2088610020C86100BF05E090
:1006900040F25552BB4941F82020401C0728F7DBA7
:1006A000CC20B8492039C8640866AA20C1F8A40043
:1006B000C1F8BC000020C1F8C000C1F8C4003C2053
:1006C000C1F8C8000120C1F8CC00AA20C1F8D000B0
:1006D0000C20C1F8D4000020C1F8D8003C20C1F89B
:1006E000DC000120C1F8E000CC20C1F8E400C1F832
:1006F000F800C1F80C01C1F82001C1F83401C1F8BB
:10070000480100219F482038C0F86411C0F86811E2
:10071000C0F81412C0F81812CC21C0F80012C0F8AA
:10072000B012C0F8D011C0F8E811C0F88012C0F8BB
:100730009812CC2093492039C1F8880000204861E4
:1007400048F231600860522048600020C1F8B800CB
:100750000F20C1F89800002008E0411C01EB810146
:100760004A008849883141F82020401C0428F4D3ED
:10077000CC2084492039486788670BF01EFD694604
:10078000022012F017F97F492039C1F8BC0208BDD8
:1007900010B500242AE0C4EB04107B4901EBC00033
:1007A000007910280DD0C4EB041001EBC0000079D3
:1007B000112806D0C4EB041001EBC0000079122808
:1007C00012D10120714981F8D40BFF20C4EB041130
:1007D0006D4A02EBC10181F832000120C4EB041123
:1007E00002EBC10181F86800601CC4B267488069EF
:1007F000A042D0D8654890F8D40BE8B1012010F0A1
:100800000EFC10F0DCFB614890F84410002010F062
:1008100046FA00240CE010F0EBF908B1012010BDFD
:100820005A4890F84410002010F039FA601CC4B205
:10083000032CF0DB0020F2E7002010F0F0FB012099
:10084000EDE71FB503A852A10022534BCDE90021CB
:10085000029002220A21084613F0F5FC4B49C1F828
:10086000C80BD1F8C80B03A913F07FFE1FBD1FB53D
:1008700003A84AA100224B4BCDE90021029002229D
:1008800064210A2013F0DFFC4049C1F8CC0BD1F8F9
:10089000CC0B03A913F069FE1FBD0F213B4880F864
:1008A000E11B092180F8E01B0F2180F8DF1B0321E9
:1008B00080F8E21B082180F8DE1B002180F8DD1B98
:1008C0000020324981F8DC0BFF2081F8450B3648C7
:1008D0000069012817D1002011E0C0EB00112A4A5D
:1008E00002EBC10189680C2908D12F49097EC0EBB0
:1008F0000012254B03EBC20282F83210401C234940
:1009000089698142E9D8704710B5FFF79BFCFFF772
:10091000ABFCFFF7D1FCFFF7DAFDFFF72CFEFFF78A
:10092000BCFF00201749203981F8C0021F480FF092
:1009300072FCFFF72DFF20B90020144981F8020C4A
:1009400003E00120114981F8020C00200F4981F8D1
:10095000030C4FF4004116480CF0CBFE18B10120F7
:100960000A4981F8030CFFF76CFFFFF780FF10BD09
:100970001048006800F4E0600F490843001D0D496D
:1009800008607047982300209821002078150020E7
:10099000746D723100000000F5B50008746D72329C
:1009A00000000000D1B70008581500205421002095
:1009B000000C01400CED00E00000FA0510B5034604
:1009C0001A780120B0EB221F01D0002010BD58780A
:1009D000062803D0F32008700120F7E702F00F0289
:1009E0001AB9F12008700120F0E7501EC0EBC000DA
:1009F000FE4C14F820004870501EC0EBC00004EB01
:100A00008000007988700120E0E710B503461A786D
:100A10000220B0EB221F01D0002010BD587806281C
:100A200003D0F32008700120F7E702F00F021AB993
:100A3000F12008700120F0E7501EC0EB0010EC4CD4
:100A400014F830004870501EC0EB001004EBC000DA
:100A5000007988700120E0E72DE9FC4105460C464D
:100A60002878207028786E2870D04BDC47286ED00C
:100A70001EDC30286CD00ADC0E286AD2DFE800F0D9
:100A8000699769A469BCC8DAF869F76969F6342816
:100A900074D006DC312872D0322871D0332858D176
:100AA0008AE140286DD042286CD04528F7D1EAE190
:100AB000602868D015DCA0F148001028DDD2DFE8FE
:100AC00010F0FC01130248001902480048004800D9
:100AD0001C021F022202480048002502480048006C
:100AE000280261380C28C8D2DFE810F02502330054
:100AF0003C023300530233006A0233008102900249
:100B00003300A702932872D02BDC7E2870D013DC30
:100B1000A0F170000E28B0D2DFE810F0BD021B007B
:100B20001B001B001B001B001B00D402E102E202A1
:100B3000E302E402E502E6028A2873D00ADC802898
:100B400071D0812870D08928A9D1D7E28CE2B1E197
:100B5000C7E0FDE3902868D0912867D092289ED105
:100B600016E3B6287ED016DCA4287CD00CDC9728AF
:100B70007AD0A02879D0A12891D12DE31DE119E1E7
:100B800019E152E15CE1C7E1A72872D0A82871D031
:100B9000AB2884D12CE3B73807288FD2DFE810F0D8
:100BA00049035E03730388039D03B203C703687898
:100BB000032806D1862060703120A070002060716B
:100BC00001E0F3202070D8E36878042811D1894827
:100BD0008068000E607087488068000CA0708548AF
:100BE0000089000AE0708348007A207103E0DEE2A9
:100BF0007BE2F3202070C0E36878022805D17D48AD
:100C0000007B60706078A07001E0F3202070B4E396
:100C1000687802280BD17748007D60707548007EA7
:100C2000A07006E06DE263E265E26DE28EE2F32021
:100C30002070A2E3687802282AD16E48006914283F
:100C400001D13220A0706B480069322801D13420D4
:100C5000A07068480069642801D14120A0706548EF
:100C6000006908E0D0E2BAE2B0E2B2E219E015E0D1
:100C700011E0B7E2B9E27D2801D14320A0705D48C0
:100C80000069FA2801D14420A0701120607001E0B1
:100C9000F320207071E3F22020706EE3F2202070C8
:100CA0006BE36878062819D168460FF029FD90B1EA
:100CB0009DF8050060709DF80400A0709DF8030089
:100CC000E0709DF8020020719DF8010060719DF8B0
:100CD0000000A07101E0F420207001E0F3202070FA
:100CE0004BE36878022862D1A878012802D1F2206B
:100CF000207042E3A87898BB3F48D0F85C01AA284E
:100D000004D03D48D0F80C02AA2806D13948C06B5F
:100D100040F080003749C86305E03648C06B20F0DA
:100D200080003449C8633448C06FAA2806D13148CE
:100D3000C06B40F040002F49C86305E02D48C06BF0
:100D400020F040002B49C8632B48D0F88000AA2827
:100D500007D12848C06B40F010002649C86306E060
:100D600022E02448C06B20F010002249C8632248CA
:100D7000D0F88400AA2806D11E48C06B40F00800B5
:100D80001C49C86305E01B48C06B20F008001949E6
:100D9000C863184890F83C006070164890F834001A
:100DA0000007000EA07004E0F120207001E0F320A5
:100DB0002070E2E200BF00BF00BF6878032831D195
:100DC000217801F00F00411EC1EB0111084A02EB2E
:100DD000C101097B6170411EC1EB011102EBC10130
:100DE000097C01F00F01A170411E07E07C21002069
:100DF000982100207815002078230020C1EB0111F4
:100E000002EBC101097AA27841EA0211A170411EE8
:100E1000C1EB0111F84A02EBC101098AC1F30711C4
:100E2000E17001E0F3202070A7E26878012804D186
:100E3000F24890F87C00607001E0F32020709CE2A2
:100E4000687806281CD10BF0E6FB06460BF0ADFBDC
:100E5000EA4909694718300A6070A670E748C06F10
:100E6000CC2802D160700020A070380AE070277191
:100E7000E248008A000A6071E048007CA07101E04D
:100E8000F320207079E26878032810D1DB4890F8CD
:100E900080006070D94890F89000A070D748D0F8D2
:100EA0009400012800D100E01120E07001E0F3205F
:100EB000207062E2F22020705FE26878022810D190
:100EC000CF48C06810B91120607001E00120607047
:100ED000CC48006A10B91120A07004E00120A07075
:100EE00001E0F320207048E26878032801D1F32064
:100EF000207042E2F22020703FE2F22020703CE2BB
:100F0000F220207039E2F220207036E2F2202070C8
:100F100033E2F220207030E26878022808D1B74826
:100F200090F85C016070B54890F86001A07001E035
:100F3000F320207021E26878042810D1AF4890F89F
:100F40006C016070AD4890F87001A070AB4890F8EB
:100F50007401E070A94890F87801207101E0F32055
:100F600020700AE26878042810D1A44890F87C0127
:100F70006070A24890F88001A070A04890F88401A9
:100F8000E0709E4890F88801207101E0F320207005
:100F9000F3E16878042810D1984890F88C016070CB
:100FA000964890F89001A070944890F89401E070F1
:100FB000924890F89801207101E0F3202070DCE164
:100FC0006878042810D18D4890F89C0160708B4897
:100FD00090F8A001A070894890F8A401E0708748BB
:100FE00090F8A801207101E0F3202070C5E1687835
:100FF000022808D1814890F80C0260707F4890F870
:101000001002A07001E0F3202070B6E16878042897
:1010100010D17A4890F81C026070784890F820024D
:10102000A070764890F82402E070744890F8280286
:10103000207101E0F32020709FE16878042810D12E
:101040006E4890F82C0260706C4890F83002A070E6
:101050006A4890F83402E070684890F838022071CD
:1010600001E0F320207088E16878042810D16348FB
:1010700090F83C026070614890F84002A0705F48B0
:1010800090F84402E0705D4890F84802207101E059
:10109000F320207071E16878042810D1574890F847
:1010A0004C026070554890F85002A070534890F878
:1010B0005402E070514890F85802207101E0F3208A
:1010C00020705AE16878022806D14C48007E607092
:1010D0004A48007FA07001E0F32020704DE100BF7E
:1010E00000BF00BF00BF00BF00BFF220207044E17E
:1010F000F220207041E1F22020703EE1F2202070C9
:101100003BE1F220207038E1687804281BD13B488D
:10111000D0F8C001B02805D1FF206070A070E07049
:10112000207112E0354890F8C0016070334890F8A3
:10113000C401A070314890F8C801E0702F4890F8C1
:10114000CC01207101E0F320207016E168780428BA
:101150001BD12A48D0F87002B02805D1FF2060705A
:10116000A070E070207112E0244890F87002607066
:10117000224890F87402A070204890F87802E0703D
:101180001E4890F87C02207101E0F3202070F4E00A
:101190006878022808D1194890F8640160701748EF
:1011A00090F86801A07001E0F3202070E5E0687815
:1011B000022808D1114890F8140260700F4890F886
:1011C0001802A07001E0F3202070D6E0F220207019
:1011D000D3E0F2202070D0E0F2202070CDE0F220A9
:1011E0002070CAE0F2202070C7E0F2202070C4E036
:1011F000F2202070C1E00000982100207823002018
:101200005815002078150020F84890F8BC00607050
:10121000F64890F8C000A070F44890F8C400E07060
:10122000F24890F8C8002071F04890F8CC00607146
:10123000A3E0EE4890F8D0006070EC4890F8D4003D
:10124000A070EA4890F8D800E070E84890F8DC0018
:101250002071E64890F8E00060718EE0E34890F875
:10126000E4006070E14890F8E800A070DF4890F872
:10127000EC00E070DD4890F8F0002071DB4890F859
:10128000F400607179E0D94890F8F8006070D748B0
:1012900090F8FC00A070D54890F80001E070D348A9
:1012A00090F804012071D14890F80801607164E061
:1012B000CE4890F80C016070CC4890F81001A070F6
:1012C000CA4890F81401E070C84890F818012071DD
:1012D000C64890F81C0160714FE0C44890F82001A6
:1012E0006070C24890F82401A070C04890F82801AE
:1012F000E070BE4890F82C012071BC4890F8300195
:1013000060713AE0B94890F834016070B74890F8DD
:101310003801A070B54890F83C01E070B34890F8EF
:1013200040012071B14890F84401607125E0AF4858
:1013300090F848016070AD4890F84C01A070AB483F
:1013400090F85001E070A94890F85401207100E035
:1013500004E0A64890F8580160710EE02146284646
:10136000FFF72CFB00B108E021462846FFF74DFBB4
:1013700000B102E0F220207000BF00BFBDE8FC8198
:10138000002101709A498968491C21B9017841F00E
:10139000040101700FE096498968012904D10178A0
:1013A00041F00801017006E09149896819B9017896
:1013B00041F00C0101708E490969491C21B901787D
:1013C00041F0100101700FE089490969012904D138
:1013D000017841F02001017006E08549096919B9D9
:1013E000017841F0300101708149C96821B9017863
:1013F00041F00301017003E0017841F00101017047
:10140000704710B503460A4619780220B0EB211F39
:1014100001D0002010BD5878022803D0F3201070AE
:101420000020F7E701F00F0109B1042903DDF120E5
:1014300010700020EEE7481EC0EB00106D4C04EB6E
:10144000C00000795070481EC0EB001004EBC000D3
:10145000C06C08B1EE2090700120DBE770B5054646
:101460000C46287820702878012806D0032808D058
:1014700004283CD0072879D199E0601CFFF780FF51
:10148000A1E0687806282FD1601CFFF779FF574844
:1014900090F8C00230B1AA20A0700020534981F812
:1014A000C00201E0CC20A070002018E0C0EB0011C9
:1014B000504A02EBC10191F8301001290ED10728E2
:1014C00006DA2179421C012393401943217105E07A
:1014D000E178C21F012393401943E170401C464943
:1014E00089698142E2D801E0F32020706BE06878DE
:1014F000062859D1404890F8E40B08B1002000E0DC
:10150000112060703C4890F8400B032801DB6120FB
:10151000A070394890F8E30B08B13120A07036482C
:1015200090F8460B0A2801DB5120A070002017E03C
:10153000C0EBC001314A02EB8101896903290ED356
:10154000072806DA2179421C0123934019432171AF
:1015500005E0E178C21F012393401943E170401C6C
:10156000254949698142E3D8002018E022E0C0EB18
:101570000011204A02EBC101C96C03290ED30728D0
:1015800006DAA179421C012393401943A17105E0B9
:101590006179C21F0123934019436171401C1649B0
:1015A00089698142E3D801E0F32020700BE0F2204A
:1015B000207008E021462846FFF723FF00B102E033
:1015C000F220207000BF00BF70BD10B503461A782E
:1015D0000120B0EB221F01D0002010BD5878022856
:1015E0000ED0F32008700020F7E7000078230020D9
:1015F0005815002098210020781500207C2100201B
:1016000002F00F021AB9F12008700020E5E7501E21
:10161000C0EBC000484C04EB800000794870501EBD
:10162000C0EBC00004EB8000806908B1EE20887038
:101630000120D2E7F0B50246107808701078012832
:1016400076D15078072870D1002600230024002589
:10165000002005E04FF0CC0C471C01F807C0401CEF
:101660000728F7DB002018E0C0EBC007DFF8C8C090
:101670000CEB87073F79062F0DD0C0EBC0070CEBB2
:1016800087073F79072F06D0C0EBC0070CEB870711
:101690003F79082F00D15B1C401C284F7F6987428F
:1016A000E2D87BB12548D0F8FC4B200A48708C70FA
:1016B000224890F84F0B10B91020C87007E0302076
:1016C000C87004E0CC2048708870C020C870002525
:1016D00000200BE0C0EBC007DFF85CC00CEB870715
:1016E0003F79052F01D1012504E0401C134F7F698C
:1016F0008742EFD800BF65B1C878104FB7F8487B74
:10170000C7F303273843C8700C4890F8480B08719A
:1017100005E0C87840F00C00C870CC200871CC20DF
:101720004871887103E003E0FFE7F3200870F0BD23
:10173000F220087000BFFAE77C2100207815002015
:1017400038B505460C46002002E0295C2154401CB7
:101750000828FADB0D20E0712878012804D002283F
:1017600040D0072854D150E000200090687800F065
:101770000C0000909DF80000042803D1401FFE4992
:10178000886012E09DF80000082803D10120FA4982
:1017900088600AE09DF800000C2803D10020F6497B
:1017A000886002E0F3206070E071687800F0030068
:1017B00000909DF80000012802D1EF49C8600AE0BE
:1017C0009DF80000032803D10020EB49C86002E027
:1017D000F3206070E0710AF026FC10B9F420E0718B
:1017E00019E018E0687852280ED1A87853280BD158
:1017F00000BFE248006800F4E060E1490843001DD2
:10180000DE49086000BF00BF05E0F220E07102E0A1
:10181000F220E07100BF00BF38BD2DE9FC41044655
:101820000D46002002E0215C2954401C0828FADB08
:101830000D20E87120786A287ED058DC41287CD0C1
:101840002ADC12287AD014DCA0F103000F2876D20B
:10185000DFE810F0AA007500D100F1000A0139019B
:1018600075003C01750075003F017500750075003D
:101870007C0132286FD008DC23286DD024286CD05E
:1018800030286BD031285AD131E2332867D0342840
:1018900075D04028F7D1A1E2512871D014DCA0F115
:1018A00042000F28D3D2DFE810F0AF024A004A000E
:1018B000C7024A00E602E90208034A000B034A0095
:1018C0004A004A000E03110363287DD008DC542827
:1018D0007BD057287AD0602879D06128D3D113E300
:1018E000652875D0672874D06928CCD160E3922828
:1018F00070D035DC7C286ED015DCA0F16C0010288F
:10190000A5D2DFE810F07A031C008D031C00A003B1
:101910001C001C001C001C001C001C00B303BE03A8
:10192000BF03C003C103892874D00DDC7D2872D0A9
:101930007E2871D0802803E04CE358E207E1EFE312
:101940006BD081289FD1BCE38A2867D090286ED0C5
:10195000912898D1D1E3CBE1FCE0FCE020E1C8E1A3
:10196000B6287AD014DCA42878D00ADC932876D064
:10197000972875D0A02874D0A12884D1F3E3B9E1C9
:10198000A7E2A7286ED0A8286DD0AB28A6D1F6E391
:10199000B738072886D2DFE810F00B04210437049B
:1019A0004D04630479048F042079764988600846E1
:1019B0008068E17840EA01207249886008468068C2
:1019C000A17840EA014007E0B1E285E287E289E2DE
:1019D000C0E2D2E2A5E358E36A498860084680681D
:1019E000617840EA0160674988600AF040FB08B905
:1019F000F420E87107E26078A178884218D1607815
:101A0000C0B160785F49C8600AF031FB38B9F42092
:101A1000E8710FE058E339E339E34FE357E3594AFC
:101A2000928991B2574A107C0FF094FB02E051E387
:101A3000F320E871DEE76078012802DC6078514924
:101A40004861A078042802DCA0784E4988610AF039
:101A50000EFB08B9F420E871CCE793E386E36DE36D
:101A600079E37BE385E387E3607811282AD1A078C6
:101A7000322802D1142043490861A078342802D1C9
:101A8000322040490861A078412802D164203D49B4
:101A90000861A078432802D17D203A490861A078E6
:101AA000442802D1FA20374908610AF0E0FA10B957
:101AB000F420E87106E0334A928991B2314A107CF1
:101AC0000FF048FB96E7F220E87193E7F220E87107
:101AD00090E76078992812DCA07812280FDCA078B3
:101AE00068B1E07831280ADCE07840B12079232819
:101AF00005DC6079592802DCA079592802DDF32041
:101B0000E871F2E360788DF80500A0788DF80400A4
:101B1000E0788DF8030020798DF8020060798DF867
:101B20000100A0798DF8000012F090FE074668468B
:101B30000EF01EFC0646384612F08CFE16B9F42054
:101B4000E87102E010480EF037FDCEE300BFF2204E
:101B5000E871CAE300BF207800F00F06A178701E7C
:101B6000C0EB0010094A02EBC00001716178701EE1
:101B7000C0EB00100CE00000581500200CED00E058
:101B80000000FA057815002054210020982100203B
:101B900042F830100AF09CFA08B9F420E871A4E386
:101BA000607800F0010010B1F220E8719DE36078E8
:101BB00000F0010090B36078F9498863084690F816
:101BC000380000F0800030B1AA21F648C0F8AC110E
:101BD000C0F85C1205E0CC21F248C0F8AC11C0F8A6
:101BE0005C12EF4890F8380000F0200030B1AA21D4
:101BF000EC48C0F80012C0F8B01205E0CC21E9486A
:101C0000C0F80012C0F8B012E54890F8380000F0B3
:101C1000100020B1AA20E349486703E01BE0CC2074
:101C2000E0494867DE4890F8380000F0080018B135
:101C3000AA20DC49886702E0CC20DA498867A078CE
:101C400000F00F00D64908630846006B042843D90A
:101C50000420086340E06078D149C863084690F8E2
:101C60003C0000F0800030B1AA20CE49C1F85C01F0
:101C7000C1F80C0205E0CC20CA49C1F85C01C1F8EA
:101C80000C02C74890F83C0000F0400018B1AA20B0
:101C9000C449C86702E0CC20C249C867C04890F870
:101CA0003C0000F0100020B1AA20BE49C1F880001D
:101CB00003E0CC20BB49C1F88000B94890F83C0053
:101CC00000F0080020B1AA20B649C1F8840003E062
:101CD000CC20B449C1F884000AF0C9F908B9F4204D
:101CE000E8710AF06AFA08B9F420E871FDE200BF71
:101CF00000BF00BF207800F00F06A07800F00F00B2
:101D00000C2802D1F220E871EFE26178701EC0EB7E
:101D10000010A54A02EBC000C160A07800F00F01DE
:101D2000701EC0EB001002EBC0008160E178701EF5
:101D3000C0EB001002EBC0000161701EC0EB001090
:101D4000114601EBC00000690001A17840EA2111B1
:101D5000701EC0EB001002EBC0000161701EC0EBF2
:101D60000010114601EBC00080680B2807D0701EE0
:101D7000C0EB001001EBC00080680C2810D1701E71
:101D8000C0EB0010884901EBC000007B00F0BF01F0
:101D9000701EC0EB0010844A02EBC000C16017E067
:101DA000701EC0EB0010804901EBC00080680A285B
:101DB0000ED1701EC0EB001001EBC000007B00F0E4
:101DC000DF01701EC0EB0010774A02EBC000C1605B
:101DD0000AF07EF908B9F420E87186E2607871496A
:101DE000C8670AF0EAF908B9F420E8717DE2607882
:101DF000EE2808D1A078AA2805D16A48C06FAA2881
:101E000001D107F093F970E2A078617840EA0120EF
:101E1000644988602079E17840EA01206149C8601E
:101E2000A079617940EA01205E4908610AF0C5F9AC
:101E300008B9F420E87158E260785A49C1F8800086
:101E4000A078C1F890000846D0F8900010B90120A1
:101E5000C1F89000E078012803D15249C1F89400FC
:101E600003E000204F49C1F894000AF0A6F908B930
:101E7000F420E87139E2F220E87136E26078112846
:101E800003D100204949C86002E001204749C860E9
:101E9000A078112803D100204149086202E0012006
:101EA0003F4908620AF0E3F808B9F420E8710AF043
:101EB000BAF808B9F420E87117E2F220E87114E2E8
:101EC000F220E87111E2F220E8710EE2F220E871EE
:101ED0000BE2F220E87108E2F220E87105E2F2205C
:101EE000E87102E260782F49C1F85C01A07800F047
:101EF000800018B1A1782B48C0F860110AF05DF994
:101F000008B9F420E871F0E161782648C0F86C1156
:101F1000A178C0F87011E178C0F874112179C0F887
:101F200078110AF04AF908B9F420E871DDE1617826
:101F30001C48C0F87C11A178C0F88011E178C0F885
:101F400084112179C0F888110AF037F908B9F42012
:101F5000E871CAE161781348C0F88C11A178C0F823
:101F60009011E178C0F894112179C0F898110AF025
:101F700024F908B9F420E871B7E161780948C0F89C
:101F80009C11A178C0F8A011E178C0F8A4112179C2
:101F9000C0F8A8110AF011F908B9F420E871A4E119
:101FA0007815002078230020982100205815002063
:101FB0006078CF49C1F80C02A07800F0800018B119
:101FC000A178CB48C0F810120AF0F7F808B9F4204D
:101FD000E8718AE16178C648C0F81C12A178C0F89F
:101FE0002012E178C0F824122179C0F828120AF0F2
:101FF000E4F808B9F420E87177E16178BC48C0F8EA
:102000002C12A178C0F83012E178C0F8341221798E
:10201000C0F838120AF0D1F808B9F420E87164E188
:102020006178B348C0F83C12A178C0F84012E1785A
:10203000C0F844122179C0F848120AF0BEF808B975
:10204000F420E87151E16178A948C0F84C12A178F8
:10205000C0F85012E178C0F854122179C0F8581233
:102060000AF0ABF808B9F420E8713EE16078A049C5
:102070008861A078C8610AF0A0F808B9F420E87176
:1020800033E100BF00BF00BF00BF00BF00BF20782A
:1020900000F0070661789648203040F82610A178B5
:1020A00050F8260041EA00219148203040F82610DF
:1020B0000AF083F808B9F420E87116E1F220E8711B
:1020C00013E1F220E87110E1F220E8710DE1F22055
:1020D000E8710AE161788648C0F8C011A178C0F8BB
:1020E000C411E178C0F8C8112179C0F8CC110AF008
:1020F00064F808B9F420E871F7E061787C48C0F82A
:102100007012A178C0F87412E178C0F878122179C1
:10211000C0F87C120AF051F808B9F420E871E4E044
:10212000E0E061787248C0F86411A178C0F86811E5
:102130000AF043F808B9F420E871D6E061786C48F9
:10214000C0F81412A178C0F818120AF036F808B9CD
:10215000F420E871C9E0F220E871C6E0F220E871ED
:10216000C3E000E00BE0F220E871BEE0F220E8718D
:10217000BBE0F220E871B8E0F220E871B5E0F220AF
:10218000E871B2E060785A49C1F8BC00A078C1F8A3
:10219000C000E078C1F8C4002079C1F8C8006079B7
:1021A000C1F8CC000AF009F808B9F420E8719CE005
:1021B00060784F49C1F8D000A078C1F8D400E07829
:1021C000C1F8D8002079C1F8DC006079C1F8E000DE
:1021D00009F0F3FF08B9F420E87186E0607844491B
:1021E000C1F8E400A078C1F8E800E078C1F8EC009C
:1021F0002079C1F8F0006079C1F8F40009F0DDFF42
:1022000008B9F420E87170E060783949C1F8F80045
:10221000A078C1F8FC00E078C1F800012079C1F88D
:1022200004016079C1F8080109F0C7FF08B9F4207A
:10223000E8715AE060782E49C1F80C01A078C1F825
:102240001001E078C1F814012079C1F81801607913
:10225000C1F81C0109F0B1FF08B9F420E87144E0AD
:1022600060782349C1F82001A078C1F82401E07802
:10227000C1F828012079C1F82C016079C1F830013A
:1022800009F09BFF08B9F420E8712EE06078184946
:10229000C1F83401A078C1F83801E078C1F83C01F8
:1022A0002079C1F840016079C1F8440109F085FF47
:1022B00008B9F420E87118E060780D49C1F84801C8
:1022C000A078C1F84C01E078C1F850012079C1F83C
:1022D00054016079C1F8580109F06FFF08B9F42082
:1022E000E87102E0F220E87100BF00BFBDE8FC81A8
:1022F00078230020F0B585B005460E4600240A205C
:102300000EF0B3FA009500208DF809008DF8080052
:1023100008208DF80A003068CDF80B007068CDF801
:102320000F00694665480CF00FF8074604E0601C92
:10233000C4B2C82C00DD07E0394660480CF097F8BD
:10234000012801D0FF2CF2D100BF05B0F0BDF8B5D7
:1023500004460E461546082C36D2DFE804F0350454
:1023600035090E13352429463046FFF777F82EE05D
:1023700029463046FEF770FB29E029463046FFF734
:1023800059F924E04E496A46D1F83C0B002110F07F
:1023900012FC29463046FFF7D3F94949D1F83C0BE6
:1023A00010F02BFD13E046496A46D1F83C0B0021A2
:1023B00010F001FC29463046FFF72FFA4049D1F8CA
:1023C0003C0B10F01AFD02E0F120287000BF00BFA6
:1023D000F8BD2DE9FC410446002000900190012643
:1023E00004F10B05E879052808D12088C0F30227FD
:1023F0006A4629463846FFF7AAFF00E00026207803
:1024000000B900261EB169462068FFF773FFBDE8DA
:10241000FC812C4809F0BFF8294A928991B2284AD8
:10242000107C0EF097FE24E012F010FA05462548C5
:1024300009F0B4F898B90024224809F0C2F804461B
:10244000284612F007FA4CB104F10800FFF7C1FF6B
:102450001B49886C214610F007FA002402E0284648
:1024600012F0F8F9322300221146104611F02CFE2A
:1024700000BFD9E738B50020009000241049886CCF
:10248000694610F09CF9044604B938BD4FF4B470A5
:102490000B49C1F8E80B04F10802002107480CF0D1
:1024A00060F812F0D3F905462146064809F095F880
:1024B000284612F0CFF900BFE7E7000000640040B3
:1024C00078150020000000200EB559E0002412F01D
:1024D000BDF9054606200FF034F80CF028FE012067
:1024E000042110221923CDE900210290112202209B
:1024F0000FF05AF823480EF08DF9FEF705FA0CF0AC
:1025000016FE0523204A0021204811F063FA0446F4
:1025100006231F4A00211F4811F05CFA04460823D5
:102520001D4A00211D4811F055FA044607231C4A94
:1025300000211C4811F04EFA044609231A4A0021D2
:102540001A4811F047FA04460B23194A002119488A
:1025500011F040FA04460A23174A0021174811F0E7
:1025600039FA04460C23164A0021164811F032FAB3
:102570000446FF2011F0AEFC284612F06BF900BFB4
:10258000A4E7000080841E00A40700207D910008BD
:1025900034130020DFD000086404002061C3000869
:1025A0006406002013240008A4090020DBB0000802
:1025B000A40D0020D58F000834150020DFBE0008D0
:1025C000E40E0020FDC900080146FE48007808B16D
:1025D000112070470846FCE70246FB48007881421C
:1025E00003D0FA480078884204D1F648007808B150
:1025F000112070471046FCE700203FE0F4490988AD
:10260000012903D10C21F34AD1713BE0C0EBC00199
:10261000F14A02EB8101896903292DD3C0EBC00186
:1026200052F8211041B3C0EBC00152F82110491CEF
:1026300011B3C0EBC00102EB81010979091F062922
:1026400018D2DFE801F003070B0F17131621E14A38
:10265000D17110E01821DF4AD1710CE00E21DD4A62
:10266000D17108E00E21DB4AD17104E01321D94A6F
:10267000D17100E000BF00BF411CC8B2D749496911
:102680008142BBD800BFD54991F8401B032902DB2A
:102690001321D04AD171002054E0C0EB0011D04A80
:1026A00002EBC101097911290DD0C0EB001102EB39
:1026B000C1010979122906D0C0EB001102EBC1015A
:1026C0000979102916D1C0EB0011C54A02EBC101EE
:1026D000C96C03290ED3C0EB001152F8311049B177
:1026E000C0EB001152F83110FF2903D01B21B94A69
:1026F000D1712BE0C0EB0011B94A02EBC10149696D
:10270000012911D1C0EB001102EBC1010979302977
:102710000AD1C0EB001102EBC101C96A032903D33E
:102720001921AC4AD17111E0C0EB0011AC4A02EBA7
:10273000C10191F8521019B11021A64AD17105E0DA
:10274000411CC8B2A54989698142A6D800BF70471B
:1027500000B589B0A3480078002841F09084A248D1
:102760000078082801F0D3810BDC81F08684DFE853
:1027700010F0230024026E02A5034E0799083309C6
:102780008509262801F063830CDC092801F0B48355
:10279000102800F0FA87132801F05880172841F01C
:1027A0006C84B5E0282801F0ED83292801F0048429
:1027B000FF28F4D101F054BC8C488068401C0028EC
:1027C0007DD111208349C871844890F8E40B012819
:1027D00001D11220C871FFF70FFF804890F8DC0B81
:1027E00000F00100824908708248007818B140204A
:1027F0008149087002E000207F4908701120754966
:102800008871764890F8DE0B0A2190FBF1F008B948
:10281000112005E0714890F8DE0B0A2190FBF1F0E1
:102820006C4908726D4890F8DE0B0A2190FBF1F2BA
:1028300001FB120067494872684890F8DD0B0A21D5
:1028400090FBF1F063498872644890F8DD0B0A212F
:1028500090FBF1F201FB12005E49C8720846C07994
:10286000122813D10846C07A897A5A4A527ACDE999
:10287000002102905748007A0346122208905C48D3
:1028800001785D4800780EF08FFE3FE05148C07936
:102890000790FFF799FE08904E48C07A4D49897A13
:1028A0004C4A527ACDE9002102904A48007A034608
:1028B00007904F48017850480078089A00E002E0FD
:1028C0000EF072FE22E04948806801280FD11820DE
:1028D000494908701220002111221346CDE9002138
:1028E00002900E22444800780EF05EFE0EE03F4853
:1028F000806858B90F200022CDE9002011230E2254
:10290000002102903C4800780EF04EFE01F0B6BB6C
:102910003A480078012851D1304890F8DC0B00F09B
:102920000100334908703648007801282DD1294824
:10293000C07A03210490FFF74FFE08902548807A63
:1029400002210490FFF748FE07902248407A0121B7
:102950000490FFF741FE06901E48007A0021049083
:10296000FFF73AFE0590DDE906120898CDE900125E
:1029700002901848C079049002461D4801781E480C
:102980000078059B0EF010FE15E01248C17A807A9F
:10299000104A527ACDE9002002910E48007A089040
:1029A0000C48C07907900246114801781248007817
:1029B000089B0EF0F9FD00200F4908700F480078C1
:1029C00002281FE025000020120000201300002034
:1029D000AC000020381500207C2100207815002054
:1029E00098210020280000200D000020581500200C
:1029F0001100002044000020270000200F000020CC
:102A00000800002040D1FE4890F8DC0B00F00100E7
:102A1000FC490870FA4890F8DD0B0A2190FBF1F0B0
:102A2000F9490872F64890F8DD0B0A2190FBF1F2A3
:102A300001FB1200F4494872F14890F8DC0B0A21BE
:102A400090FBF1F0F0498872ED4890F8DC0B0A2118
:102A500090FBF1F201FB1200EB49C8720846C07A04
:102A6000897AE94A527ACDE900210290E648007A53
:102A70000890E548C07907900246E2480178E348AB
:102A80000078089B0EF090FDE148007803284ED1B5
:102A9000DC490870DF480078012830D1DA48C07A74
:102AA00004210390FFF798FD0890D748807A03210E
:102AB0000390FFF791FD0790D348407A02210390DD
:102AC000FFF78AFD0690D048007A01210390FFF7B6
:102AD00083FD0590CC48C07900210390FFF77CFD71
:102AE0000490DDE906120898CDE900120290002159
:102AF000C6480078DDE904230EF056FD14E0C24814
:102B0000C17A807AC04A527ACDE900200291BE484B
:102B1000007A0890BC48C079079002460021BB4863
:102B20000078089B0EF040FD0020B8490870B848B6
:102B30000078042840D10020B2490870B5480078D8
:102B4000012821D1B048C07A03210690FFF744FD47
:102B50000890AD48807A02210690FFF73DFD07906E
:102B6000A94A527A0899CDE900200291A648007A34
:102B70000690A548C079059002460021A348007838
:102B8000069B0EF011FD14E09F48C17A807A9E4AA0
:102B9000527ACDE9002002919B48007A08909A4829
:102BA000C07907900246002198480078089B0EF0F3
:102BB000FBFC002095490870A8E69648007801289B
:102BC0002DD19148C07A03210490FFF705FD0890AC
:102BD0008D48807A02210490FFF7FEFC07908A4816
:102BE000407A01210490FFF7F7FC06908648007AAE
:102BF00000210490FFF7F0FC0590DDE9061208982B
:102C0000CDE9001202908048C079049002467D48C8
:102C100001787E480078059B0EF0C6FC16E07A48E5
:102C2000C07A7949897A784A527ACDE900210290AE
:102C30007548007A08907448C07907900246714838
:102C4000017872480078089B0EF0AEFC5EE6704892
:102C5000007800287ED16D49087011206A4988717A
:102C60001320C8716648B0F9420B6B49B1F90010E6
:102C7000084400283EDB6248B0F9420B6649B1F9CE
:102C800000100844002801DA102000E011205E49FD
:102C900008725B48B0F9420B5F49B1F90010084473
:102CA000642190FBF1F0584948725548B0F9420B45
:102CB0005949B1F900100844642190FBF1F201FB7D
:102CC00012000A2190FBF1F04F4988724C48B0F98C
:102CD000420B5149B1F900100844642190FBF1F214
:102CE00001FB12000A2190FBF1F201FB12004649A0
:102CF000C87245E04248B0F9420B4749B1F90010AB
:102D00000844002801DA102000E011203E49087232
:102D10003B48B0F9420B4049B1F900100844C043A8
:102D2000401C642190FBF1F0374948723448B0F9F7
:102D3000420B3949B1F900100844C043401C6421DA
:102D400090FBF1F201FB12000A2190FBF1F02E49F9
:102D5000887200E069E02A48B0F9420B2E49B1F9C7
:102D600000100844C043401C642190FBF1F201FBB9
:102D700012000A2190FBF1F201FB12002249C872F5
:102D800024480078012829D11F48C07A03210590E2
:102D9000FFF722FC08901C48807A02210590FFF77B
:102DA0001BFC07901848407A01210590FFF714FC9E
:102DB0000690DDE906120898CDE90012029012484B
:102DC000007A05901048C079049002460D480178B9
:102DD0000E480078059B0EF0E7FB6EE00A48C07ACB
:102DE0000949897A084A527ACDE9002102900648B9
:102DF000007A08900448C0790790024601480DE027
:102E00007815002011000020381500202700002030
:102E10000F000020080000201C0000200178FE4860
:102E20000078089B0EF0C0FB47E00420FB490870C7
:102E3000FB480078012829D1FA48C07A032105907F
:102E4000FFF7CAFB0890F748807A02210590FFF748
:102E5000C3FB0790F348407A01210590FFF7BCFBC4
:102E60000690DDE906120898CDE900120290ED48BF
:102E7000007A0590EB48C07904900246E748017853
:102E8000E5480078059B0EF08FFB16E0E548C07A18
:102E9000E449897AE34A527ACDE900210290E14877
:102EA000007A0890DF48C07907900246DB48017835
:102EB000D9480078089B0EF077FB27E5DA4890F8B0
:102EC000ED0B002878D1D9480078E8BB0E20D54911
:102ED000C8710020D04908701120D2490872D24828
:102EE000D0F8FC0B6421B0FBF1F0CE494872CE481B
:102EF000D0F8FC0B6421B0FBF1F201FB12000A21B7
:102F0000B0FBF1F0C7498872C748D0F8FC0B6421C8
:102F1000B0FBF1F201FB12000A21B0FBF1F201FB60
:102F20001200C049C8720846C17A807ABD4A527AF6
:102F3000CDE900200291BB48007A0890B948C079D9
:102F400007900246B54800E005E00178B2480078F5
:102F5000089B0EF029FBB5480078012844D1B04801
:102F6000007850B3AF48C07A03210590FFF734FBD7
:102F70000890AC48807A02210590FFF72DFB07905E
:102F8000A848407A01210590FFF726FB0690DDE96D
:102F900006120898CDE900120290A248007A059026
:102FA000A048C079049002469C4801789A4800786D
:102FB000059B0EF0F9FA17E05FE0FFE79948C17A48
:102FC000807A984A527ACDE9002002919548007A99
:102FD00008909448C07907900246904801788E483E
:102FE0000078089B0EF0E0FA9048007802282BD178
:102FF0008B48007848B38B48C07A03210590FFF7CF
:10300000EBFA08908748807A02210590FFF7E4FAEE
:1030100007908448407A01210590FFF7DDFA069079
:10302000DDE906120898CDE9001202907D48007A89
:1030300005907C48C079049002467848017876482B
:103040000078059B0EF0B0FAE0E27648C07A754948
:10305000897A744A527ACDE9002102907148007A47
:1030600008907048C079079002466C4801786A4819
:103070000078089B0EF098FAC8E26B4890F8EE0BC7
:10308000A8B10020684981F8EE0B81F8F20B81F8B5
:10309000F40B81F8F00B81F8F30B81F8F50B81F854
:1030A000EF0B81F8F60B81F8ED0B614908705E4873
:1030B00090F8F20B00287DD05B4890F8F40BE0BB51
:1030C0001020554908701120564908725648D0F80A
:1030D000FC0B6421B0FBF1F0524948725248D0F821
:1030E000FC0B6421B0FBF1F201FB12000A21B0FBE2
:1030F000F1F04C4988724C48D0F8FC0B6421B0FBCD
:10310000F1F201FB12000A21B0FBF1F201FB120007
:103110004449C8720846C07A0590FFF755FA0890EE
:103120004048807A0590FFF74FFA07903D48407A73
:103130000590FFF749FA069000E014E0DDE9061279
:103140000898CDE9001202903648007A059035487B
:10315000C07904900246314801782F480078059BD9
:103160000EF022FA52E2304890F8F00BE0BB11204A
:103170002C4908722F4880686421B0FBF1F029497E
:1031800048722C4880686421B0FBF1F201FB120008
:103190000A21B0FBF1F02349887226488068642137
:1031A000B0FBF1F201FB12000A21B0FBF1F201FBCE
:1031B000120000E049E01B49C8720846C07A897ACB
:1031C000184A527ACDE9002102901648007A0890F8
:1031D0001448C07907900246104801780E480078DC
:1031E000089B0EF0E1F911E2FFE70E200D4908728D
:1031F0001620487288721520C8720846C07A897AEB
:10320000084A527ACDE9002102900648007A0890D7
:103210000448C07907900FE027000020110000202B
:103220000800002038150020781500200F0000202D
:1032300024000020782300200246FE480178FE4842
:103240000078089B0EF0B0F9E0E1FC4890F8F30B31
:1032500000287DD0F94890F8F50BE8BB09F070F92B
:1032600008900820F44908701120F549087264217B
:103270000898B0FBF1F0C1B2F1484172642108989E
:10328000B0FBF1F201FB12000A21B0FBF1F0EC49B6
:10329000887264210898B0FBF1F201FB12000A2148
:1032A000B0FBF1F201FB1200E549C8720846C07A92
:1032B0000490FFF789F90790E148807A0490FFF7BE
:1032C00083F90690DE48407A0490FFF77DF9059077
:1032D000DDE90512079800E011E0CDE90012029047
:1032E000D748007A0490D648C07903900246D14866
:1032F0000178D1480078049B0EF056F986E1CF485A
:1033000090F8EF0BE8BBCD4890F8F10BC8BBCD4867
:10331000C068CC49096908444FF47A71B0FBF1F0F8
:10332000C7490872C748C068C649096908444FF4CC
:103330007A71B0FBF1F201FB12006421B0FBF1F0F5
:10334000BF494872BF48C068BE490969084400E0E7
:1033500075E06421B0FBF1F201FB12000A21B0FB21
:10336000F1F0B7498872B748C068B649096908449E
:103370006421B0FBF1F201FB12000A21B0FBF1F273
:1033800000E01AE001FB1200AD49C8720846C07A9D
:10339000897AAB4A527ACDE900210290A848007A96
:1033A0000890A748C07907900246A2480178A24831
:1033B0000078089B0EF0F8F828E1A04890F8EF0B91
:1033C000F0B10E209E4908721620487288721420AF
:1033D000C8720846C17A807A994A527ACDE90020AB
:1033E00002919748007A08909548C0790790024664
:1033F0009048017890480078089B0EF0D5F805E1D8
:103400000E208F4908721620487288720B20C872ED
:103410000846C07A897A8A4A527ACDE90021029018
:103420008748007A08908648C0790790024681480C
:10343000017881480078089B0EF0B6F8E6E07F48F6
:1034400090F8F60B00287DD07C4890F8F70BE8BB8D
:103450007A4890F8F80BC0EBC0007B4901EB800084
:10346000008A089018207449087011207449087265
:1034700064210898B0FBF1F0714948726421089802
:10348000B0FBF1F201FB12000A21B0FBF1F06C4934
:10349000887264210898B0FBF1F201FB12000A2146
:1034A000B0FBF1F201FB12006549C8720846C07A10
:1034B0000490FFF789F807906148807A0490FFF73D
:1034C00083F806905E48407A049000E017E0FFF72A
:1034D0007BF80590DDE905120798CDE9001202900E
:1034E0005748007A04905648C079039002465148E4
:1034F000017851480078049B0EF056F886E04F485A
:1035000090F8F10BF8B10E204D4908721620487260
:1035100088720B20C8720846C17A807A484A527A6B
:10352000CDE9002002914648007A08904448C079CD
:10353000079002463F4801783F480078089B0EF00C
:1035400033F863E043E03F4880683C4991F8F81B5A
:10355000C1EBC1013C4A02EB810189680844089033
:1035600011203749087264210898B0FBF1F0344902
:10357000487264210898B0FBF1F201FB12000A21A5
:10358000B0FBF1F12E48817264210898B0FBF1F292
:1035900001FB12000A21B0FBF1F201FB12012848E5
:1035A000C172C17A807A264A527ACDE9002002910E
:1035B0002348007A07902248C079069002461D48A9
:1035C00001781D480078079B0DF0EEFF1EE00A20F1
:1035D0001B49087219204872132088720020C87293
:1035E0000846C17A807A164A527ACDE900200291C3
:1035F0001348007A08901248C079079002460D4897
:1036000001780D480078089B0DF0CEFF55E40F4877
:103610000078E0BB0E48007801285CD10D480078A6
:10362000012835D10648C07A0690FEF7CDFF0890F4
:10363000034811E011000020270000207815002029
:1036400038150020782300207C2100200F00002066
:103650000800002017000020807A0690FEF7B4FFD3
:103660000790FE4A527ADDE90710CDE90021029069
:10367000FA48007A0690F948C07905900246F84861
:103680000178F8480078069B0DF08EFF7CE03AE068
:10369000F248C07A03210690FEF79EFF0890EF489B
:1036A000807A02210690FEF797FF0790EB4A527A44
:1036B0000899CDE900200291E848007A0690E74891
:1036C000C07905900246E6480178E6480078069BF6
:1036D0000DF06AFF58E0E148C07AE049897ADF4A94
:1036E000527ACDE900210290DC48007A0890DB484C
:1036F000C07907900246DA480178DA480078089BDA
:103700000DF052FF40E0D8480078012826D1D34878
:10371000C07A0590FEF758FF0890D048807A05904F
:10372000FEF752FF0790CD48407A0590FEF74CFF18
:103730000690DDE906120898CDE900120290C7480C
:10374000007A0590C548C07904900246C4480178C3
:10375000C4480078059B0DF027FF15E0BF48C17AEB
:10376000807ABE4A527ACDE900200291BB48007AA5
:103770000890BA48C07907900246B9480178B9481C
:103780000078089B0DF010FF40E7B748007801284B
:1037900029D1B248C07A03210590FEF71DFF089099
:1037A000AE48807A02210590FEF716FF0790AB48DD
:1037B000407A01210590FEF70FFF0690DDE9061221
:1037C0000898CDE900120290A448007A0590A34819
:1037D000C07904900246A2480178A2480078059B6F
:1037E0000DF0E2FE16E09D48C07A9C49897A9B4A1A
:1037F000527ACDE9002102909848007A08909748C3
:10380000C079079002469648017896480078089B50
:103810000DF0CAFE9548007810B900209149087053
:1038200092480078012802D110208E4908708F48F4
:103830000078022802D108208A4908708B48007855
:10384000032802D1182087490870FFE28348C07A14
:103850000490FEF7B9FE08908048807A0490FEF745
:10386000B3FE07907D48407A0490FEF7ADFE0690C7
:103870007A48007A0490FEF7A7FE0590DDE906126B
:103880000898CDE9001202907448C079049002466D
:10389000734801780220059B0DF086FE00207149D7
:1038A0000870EBE371480078F0BB6F48007801289E
:1038B00026D16A48C07A0590FEF786FE08906748D0
:1038C000807A0590FEF780FE07906448407A059064
:1038D000FEF77AFE0690DDE906120898CDE900129F
:1038E00002905E48007A05905C48C07904900246D8
:1038F0005B4801785B480078059B0DF055FE17E0AA
:103900005648C17A807A554A527ACDE90020029110
:103910005248007A08905148C079079002465048B2
:1039200001785048007800E00FE0089B0DF03CFE65
:103930004F48C068012802D110204A4908704C48FD
:10394000C06810B908204749087048480078012825
:1039500041D145480078012826D14048C07A0590D9
:10396000FEF732FE08903D48807A0590FEF72CFE67
:1039700007903A48407A0590FEF726FE0690DDE96A
:1039800006120898CDE9001202903448007A05909A
:103990003248C079049002463148017831480078B5
:1039A000059B0DF001FE16E02C48C07A2B49897A60
:1039B0002A4A527ACDE9002102902848007A0890DC
:1039C0002648C079079002462548017825480078A6
:1039D000089B0DF0E9FD51E323480078012826D12A
:1039E0001E48C07A0590FEF7EFFD08901B48807ACC
:1039F0000590FEF7E9FD07901848407A0590FEF71C
:103A0000E3FD0690DDE906120898CDE90012029068
:103A10001248007A05901148C07904900246104877
:103A2000017810480078059B0DF0BEFD15E00B48AD
:103A3000C17A807A094A527ACDE90020029107487A
:103A4000007A08900548C07907900246044801783A
:103A500004480078089B0DF0A7FD0BE03815002006
:103A60001100002027000020080000200F00002087
:103A7000581500200020FE490870FFE2FD4800783C
:103A8000012829D1FC48C07A03210590FEF7A4FD46
:103A90000890F948807A02210590FEF79DFD079075
:103AA000F548407A01210590FEF796FD0690DDE984
:103AB00006120898CDE900120290EF48007A0590AE
:103AC000ED48C07904900246EC480178E848007857
:103AD000059B0DF069FD16E0E748C07AE649897A52
:103AE000E54A527ACDE900210290E348007A089035
:103AF000E148C07907900246E0480178DC48007848
:103B0000089B0DF051FD0020D9490870B6E2DC4851
:103B10000078E8BB1120D8490872DA48B0F9480BA0
:103B20004FF47A7190FBF1F201FB1200642190FBDB
:103B3000F1F0D1494872D348B0F9480B642190FBA9
:103B4000F1F201FB12000A2190FBF1F0CA498872E0
:103B5000CC48B0F9480B0A2190FBF1F201FB1200AE
:103B6000C549C872C348007801282BD10846C07ADD
:103B700003210590FEF730FD0890BF48807A0221AE
:103B80000590FEF729FD0790BB48407A012100E02F
:103B90002FE00590FEF720FD0690DDE9061208985B
:103BA000CDE900120290B448007A0590B248C0797D
:103BB00004900246B1480178AD480078059B0DF0AD
:103BC000F3FC16E0AC48C07AAB49897AAA4A527A2B
:103BD000CDE900210290A848007A0890A648C07953
:103BE00007900246A5480178A1480078089B0DF08F
:103BF000DBFCA348007801286ED19E48007801289C
:103C000054D1A1480078012826D19B48C07A05905C
:103C1000FEF7DAFC08909848807A0590FEF7D4FC0D
:103C200007909548407A0590FEF7CEFC0690DDE9B6
:103C300006120898CDE9001202908F48007A05908C
:103C40008D48C079049002468C48017888480078F5
:103C5000059B0DF0A9FC3FE08748C07A0321059041
:103C6000FEF7BAFC08908448807A02210590FEF79E
:103C7000B3FC07908048407A01210590FEF7ACFC28
:103C80000690DDE906120898CDE9001202907A4804
:103C9000007A05907848C079049002467748017808
:103CA00073480078059B0DF07FFC15E07248C17ADF
:103CB000807A714A527ACDE9002002916E48007AEA
:103CC00008906D48C079079002466C4801786848B2
:103CD0000078089B0DF068FC6948007802283CD108
:103CE00064480078012822D16348C07A03210690F5
:103CF000FEF772FC08906048807A02210690FEF779
:103D00006BFC07905C4A527A0899CDE90020029139
:103D10005948007A06905848C0790590024657489D
:103D2000017853480078069B0DF03EFC15E05248A0
:103D3000C17A807A504A527ACDE9002002914E48E9
:103D4000007A08904C48C079079002464B480178A9
:103D500047480078089B0DF027FC49480078032865
:103D600074D14A480078AA2836D142480078012800
:103D70001CD11220FEF728FC08900020FEF724FC3E
:103D800007901122DDE90710CDE9002102903A48A1
:103D9000007A06903848C079059002463748017885
:103DA00033480078069B0DF0FFFB15E03248C07ADF
:103DB0003149897A1122CDE9002102902E48007AFA
:103DC00008902D48C079079002462C480178284871
:103DD0000078089B0DF0E8FB2C480078CC2835D102
:103DE0002448007801281DD10F20FEF7EDFB089034
:103DF0000F20FEF7E9FB07900020FEF7E5FB069099
:103E0000DDE906120898CDE9001202901A48007AFE
:103E100003460A22059019480178154800780DF0EC
:103E2000C3FB13E01448C07A1349897A124A527AC4
:103E3000CDE9002102901048007A03460A2208903A
:103E40000E4801780A4800780DF0AEFB16E10948EB
:103E50000078012836D10848C07A0590FEF7B4FBF7
:103E600008900548807A0590FEF7AEFB07900FE0BA
:103E70002700002008000020381500201100002035
:103E80000F000020781500201700002029000020D6
:103E9000F948407A0590FEF797FB0690DDE9061297
:103EA0000898CDE900120290F348007A0590F24894
:103EB000C079049002460021F0480078059B0DF07F
:103EC00073FB18E0EC48C07AEB49897AEA4A527AE7
:103ED000CDE900210290E848007A0890E648C079D0
:103EE000079002460021E5480078089B0DF05CFB36
:103EF0000020E2490870C1E0E1480078012828D19B
:103F0000DD48C07A03210590FEF766FB0890DA4889
:103F1000807A02210590FEF75FFB0790D648407A31
:103F200001210590FEF758FB0690DDE9061208987E
:103F3000CDE900120290D048007A0590CE48C079B1
:103F4000049002460021CD480078059B0DF02CFB23
:103F500017E0C948C17A807AC74A527ACDE9002071
:103F60000291C548007A0890C348C079079002467C
:103F70000021C2480078089B0DF016FB0020BF49C5
:103F800008707BE0BC48C17A807ABB4A527ACDE99E
:103F900000200291B848007A0890B748C07907908D
:103FA0000246B8480178B5480078089B0DF0FCFA45
:103FB0000020B249087061E0B3480078B8B9182011
:103FC000AE490870AC48C17A807AAB4A527ACDE9E2
:103FD00000200291A848007A0890A748C07907906D
:103FE00002460421A5480078089B0DF0DDFAA6489A
:103FF0000078012833D1A248007801281AD19E48C0
:10400000C07A0790FEF7E0FA9B490890897A9A4AAD
:10401000527ACDE9002102909748007A079096489D
:10402000C07906900246042194480078079B0DF061
:10403000BBFA14E09048C17A807A8F4A527ACDE96F
:10404000002002918C48007A08908B48C079079034
:104050000246042189480078089B0DF0A5FA0DE07E
:104060008A480078162100910E231122CDE9011013
:10407000002102200DF098FA00E000BF00BF844844
:104080000078012828D118207C4908707C480078E5
:10409000012815D11220FEF797FA08900020FEF7AC
:1040A00093FA07901122DDE907101346CDE90021AC
:1040B00002900E220021714800780DF075FA0BE095
:1040C0001220002111221346CDE9002102900E2278
:1040D0006A4800780DF068FA6D48007802282CD103
:1040E00000206649087066480078012819D10F2021
:1040F000FEF76AFA08900F20FEF766FA0790002094
:10410000FEF762FA0690DDE9061208981123CDE960
:10411000001202900E220021584800780DF044FA57
:104120000BE00F200022CDE9002011230E220021F8
:104130000290524800780DF037FA5548007803286D
:1041400031D100204D4908704D48007801281DD11B
:104150000020FEF739FA08901320FEF735FA079091
:104160001920FEF731FA06900A20FEF72DFA059085
:10417000DDE906120898CDE9001202900E22002116
:104180003E480078059B0DF00FFA0CE0002013214B
:1041900019220A23CDE9002102900E220146374858
:1041A00000780DF001FA09B000BD0121354A117007
:1041B0000021384A1170344A1170A021364A11701A
:1041C0000021364A1170364A1170364A11700020AB
:1041D00004E01121284A1154411CC8B20C28F8DB14
:1041E00000212B4A1170304991F894102F4A117018
:1041F00000212F4A1170224A11702E4A11701F4A55
:1042000011702D4A11702D4A1170704710B5044677
:1042100020480078082801F075820BDC81F0FB84CF
:10422000DFE810F0F90CE300CE060F0801095D0984
:10423000A009FD09172815D00ADC092801F02C83F4
:10424000102801F06983132841F0E58401F007BCD0
:10425000262801F01384282801F03F842928F3D16F
:1042600001F07ABC08480078012829D003286DD0D5
:1042700004287DD197E00000381500202700002099
:1042800008000020110000200F0000200E00002078
:10429000280000200D000020130000202100002035
:1042A0001000002012000020782300200C000020C5
:1042B0001F00002009000020150000201800002029
:1042C000F848007868BBF84890F8DC0B00F0010073
:1042D000F6490870F44890F8DE0B0A2190FBF1F0E3
:1042E000F3490872F04890F8DE0B0A2190FBF1F2D6
:1042F00001FB1200EE494872EB4890F8DD0B0A21F1
:1043000090FBF1F0EA498872E74890F8DD0B0A214A
:1043100090FBF1F201FB1200E549C872112088718F
:10432000C871E048007801280FD1DF4890F8DC0B15
:1043300000F00100DD4908700020DD490872487274
:104340008872C87211208871C8714BE0D64890F805
:10435000E00B0A2190FBF1F0D5490872D24890F8A1
:10436000E00B0A2190FBF1F201FB1200D04900E0C2
:1043700037E04872CC4890F8DF0B0A2190FBF1F04F
:10438000CB498872C84890F8DF0B0A2190FBF1F204
:1043900001FB1200C649C87211208871C24890F80A
:1043A000E20BC8711EE00020C04908700220C0491D
:1043B000087200204872BC4890F8E10B0A2190FB7B
:1043C000F1F0BB498872B84890F8E10B0A2190FBE4
:1043D000F1F201FB1200B649C87211208871C87150
:1043E00000E000BF00BF01F017BCB2480078B04940
:1043F000C871B1480078002872D1B048D0F85C018B
:10440000AA286ED1AE48007868B9AC48D0F86C01E3
:104410000C2801D9102013E0A848D0F86C010A211B
:10442000B0FBF1F00CE0A548D0F874010C2801D9DC
:10443000102005E0A148D0F874010A21B0FBF1F08A
:104440009B4908729E48007878B99C48D0F86C0166
:104450000C2801D9102017E09848D0F86C010A21E7
:10446000B0FBF1F201FB12000EE09448D0F87401A9
:104470000C2801D9102007E09048D0F874010A21D7
:10448000B0FBF1F201FB1200894948728C480078B8
:1044900068B98A48D0F870011F2801D9102013E0AC
:1044A0008648D0F870010A21B0FBF1F00CE0834897
:1044B000D0F878011F2801D9102005E07F48D0F8F6
:1044C00078010A21B0FBF1F0794988727C480078C4
:1044D00088B97A48D0F870011F2803D9102019E054
:1044E00021E01AE07548D0F870010A21B0FBF1F222
:1044F00001FB12000EE07148D0F878011F2801D9A5
:10450000102007E06D48D0F878010A21B0FBF1F2E5
:1045100001FB12006649C87205E010206449087268
:1045200048728872C87264480078012872D1634862
:10453000D0F80C02AA286ED16148007868B95F48AB
:10454000D0F81C020C2801D9102013E05B48D0F8E9
:104550001C020A21B0FBF1F00CE05848D0F824020C
:104560000C2801D9102005E05448D0F824020A2173
:10457000B0FBF1F04E4908725148007878B94F48C5
:10458000D0F81C020C2801D9102017E04B48D0F8B5
:104590001C020A21B0FBF1F201FB12000EE04748B9
:1045A000D0F824020C2801D9102007E04348D0F8A5
:1045B00024020A21B0FBF1F201FB12003C494872CF
:1045C0003F48007868B93D48D0F820021F2801D93B
:1045D000102013E03948D0F820020A21B0FBF1F096
:1045E0000CE03648D0F828021F2801D9102005E039
:1045F0003248D0F828020A21B0FBF1F02C49887229
:104600002F48007888B92D48D0F820021F2803D9F8
:10461000102019E021E01AE02848D0F820020A21F1
:10462000B0FBF1F201FB12000EE02448D0F82802A2
:104630001F2801D9102007E02048D0F828020A21BD
:10464000B0FBF1F201FB12001949C87205E010201D
:104650001749087248728872C87217480078022891
:1046600074DB15480078072870DC134800780228AE
:104670006DD11348007868B91048D0F87C0117282C
:1046800001D9102024E00D48D0F87C010A21B0FBAC
:10469000F1F01DE00948D0F88401172812D9102044
:1046A00016E000001F0000207815002011000020F7
:1046B0003815002010000020210000207823002061
:1046C0000F000020FE48D0F884010A21B0FBF1F071
:1046D000FC490872FC48007878B9F948D0F87C01A8
:1046E000172801D9102017E0F548D0F87C010A21DD
:1046F000B0FBF1F201FB12000EE0F148D0F88401AA
:10470000172801D9102007E0ED48D0F884010A21CC
:10471000B0FBF1F201FB1200EA494872EA48007866
:1047200068B9E748D0F880013C2801D9102015E08D
:10473000E348D0F880010A21B0FBF1F00EE0E04838
:10474000D0F888013C2803D9102007E0E3E22BE0F1
:10475000DB48D0F888010A21B0FBF1F0D949887212
:10476000D948007878B9D648D0F880013C2801D9DA
:10477000102017E0D248D0F880010A21B0FBF1F2F6
:1047800001FB12000EE0CE48D0F888013C2801D988
:10479000102007E0CA48D0F888010A21B0FBF1F2E6
:1047A00001FB1200C749C872C8480078032876D1B7
:1047B000C548007868B9C248D0F88C01172801D9DB
:1047C000102013E0BE48D0F88C010A21B0FBF1F0B4
:1047D0000CE0BB48D0F89401172801D9102005E05F
:1047E000B748D0F894010A21B0FBF1F0B54908723E
:1047F000B548007878B9B248D0F88C01172801D9AB
:10480000102017E0AE48D0F88C010A21B0FBF1F27D
:1048100001FB12000EE0AA48D0F89401172801D934
:10482000102007E0A648D0F894010A21B0FBF1F26D
:1048300001FB1200A3494872A348007868B9A04858
:10484000D0F890013C2801D9102013E09C48D0F802
:1048500090010A21B0FBF1F00CE09948D0F89801E2
:104860003C2801D9102005E09548D0F898010A218C
:10487000B0FBF1F0934988729348007880B9904872
:10488000D0F890013C2801D9102018E08C48D0F8CD
:1048900090010A21B0FBF1F201FB12000FE010E0E1
:1048A0008748D0F898013C2801D9102007E08448B7
:1048B000D0F898010A21B0FBF1F201FB1200814906
:1048C000C87282480078042876D17F48007868B999
:1048D0007B48D0F89C01172801D9102013E07848B4
:1048E000D0F89C010A21B0FBF1F00CE07448D0F83C
:1048F000A401172801D9102005E07148D0F8A401BF
:104900000A21B0FBF1F06F4908726F48007878B95E
:104910006B48D0F89C01172801D9102017E068488F
:10492000D0F89C010A21B0FBF1F201FB12000EE06D
:104930006348D0F8A401172801D9102007E0604887
:10494000D0F8A4010A21B0FBF1F201FB12005D498D
:1049500048725D48007868B95948D0F8A0013C28F1
:1049600001D9102013E05648D0F8A0010A21B0FB6D
:10497000F1F00CE05248D0F8A8013C2801D91020F1
:1049800005E04F48D0F8A8010A21B0FBF1F04D49ED
:1049900088724D48007880B94948D0F8A0013C2879
:1049A00001D9102018E04648D0F8A0010A21B0FB38
:1049B000F1F201FB12000FE010E04148D0F8A8012D
:1049C0003C2801D9102007E03D48D0F8A8010A2171
:1049D000B0FBF1F201FB12003A49C8723B48007883
:1049E000052875D13848007868B93548D0F82C02C8
:1049F000172801D9102013E03148D0F82C020A21E1
:104A0000B0FBF1F00CE02E48D0F83402172801D9A1
:104A1000102005E02A48D0F834020A21B0FBF1F05A
:104A2000284908722848007878B92548D0F82C021F
:104A3000172801D9102017E02148D0F82C020A21AC
:104A4000B0FBF1F201FB12000EE01D48D0F8340279
:104A5000172801D9102007E01948D0F834020A219C
:104A6000B0FBF1F201FB12001649487216480078BB
:104A700068B91348D0F830023C2801D9102013E05F
:104A80000F48D0F830020A21B0FBF1F00CE00C48DE
:104A9000D0F838023C2801D9102005E00848D0F8A9
:104AA00038020A21B0FBF1F0064988720648007806
:104AB000C0B90348D0F830023C280AD9102020E0C1
:104AC00078230020381500200F000020210000204E
:104AD00019E0F748D0F830020A21B0FBF1F201FBEF
:104AE00012000EE0F248D0F838023C2801D910201C
:104AF00007E0EF48D0F838020A21B0FBF1F201FBE1
:104B00001200EC49C872EC480078062876D1EB48D0
:104B1000007868B9E648D0F83C02172801D910207F
:104B200013E0E348D0F83C020A21B0FBF1F00CE0BE
:104B3000DF48D0F84402172801D9102005E0DC48EE
:104B4000D0F844020A21B0FBF1F0DA490872DB48E0
:104B5000007878B9D648D0F83C02172801D910203F
:104B600017E0D348D0F83C020A21B0FBF1F201FB78
:104B700012000EE0CE48D0F84402172801D91020C8
:104B800007E0CB48D0F844020A21B0FBF1F201FB68
:104B90001200C8494872C948007868B9C448D0F8BA
:104BA00040023C2801D9102013E0C148D0F840024F
:104BB0000A21B0FBF1F00CE0BD48D0F848023C28D7
:104BC00001D9102005E0BA48D0F848020A21B0FB0C
:104BD000F1F0B8498872B948007880B9B448D0F883
:104BE00040023C2801D9102018E0B148D0F840021A
:104BF0000A21B0FBF1F201FB12000FE010E0AC481B
:104C0000D0F848023C2801D9102007E0A848D0F885
:104C100048020A21B0FBF1F201FB1200A549C8725B
:104C2000A5480078072876D1A448007868B9A0483C
:104C3000D0F84C02172801D9102013E09C48D0F876
:104C40004C020A21B0FBF1F00CE09948D0F8540274
:104C5000172801D9102005E09548D0F854020A2100
:104C6000B0FBF1F0934908729448007878B9904805
:104C7000D0F84C02172801D9102017E08C48D0F842
:104C80004C020A21B0FBF1F201FB12000EE0884851
:104C9000D0F85402172801D9102007E08448D0F832
:104CA00054020A21B0FBF1F201FB12008149487263
:104CB0008248007868B97E48D0F850023C2801D973
:104CC000102013E07A48D0F850020A21B0FBF1F02E
:104CD0000CE07748D0F858023C2801D9102005E0B4
:104CE0007348D0F858020A21B0FBF1F0714988727C
:104CF0007248007880B96E48D0F850023C2801D93B
:104D0000102018E06A48D0F850020A21B0FBF1F2F6
:104D100001FB12000FE010E06548D0F858023C2873
:104D200001D9102007E06248D0F858020A21B0FBF0
:104D3000F1F201FB12005F49C8725F4800780E284B
:104D400076D15E48007868B95948D0F8C001172874
:104D500001D9102013E05648D0F8C0010A21B0FB59
:104D6000F1F00CE05248D0F8C801172801D9102002
:104D700005E04F48D0F8C8010A21B0FBF1F04D49D9
:104D800008724E48007878B94948D0F8C001172811
:104D900001D9102017E04648D0F8C0010A21B0FB25
:104DA000F1F201FB12000EE04148D0F8C8011728CB
:104DB00001D9102007E03E48D0F8C8010A21B0FB15
:104DC000F1F201FB12003B4948723C48007868B997
:104DD0003748D0F8C4013C2801D9102013E03448EA
:104DE000D0F8C4010A21B0FBF1F00CE03048D0F853
:104DF000CC013C2801D9102005E02D48D0F8CC0189
:104E00000A21B0FBF1F02B4988722C48007880B958
:104E10002748D0F8C4013C2801D9102018E02448C4
:104E2000D0F8C4010A21B0FBF1F201FB12000FE03F
:104E300010E01F48D0F8CC013C2801D9102007E031
:104E40001B48D0F8CC010A21B0FBF1F201FB1200A3
:104E50001849C872184800780F2875D1174800788B
:104E600068B91348D0F87002172801D9102013E050
:104E70000F48D0F870020A21B0FBF1F00CE00C48AA
:104E8000D0F87802172801D9102005E00848D0F89A
:104E900078020A21B0FBF1F0064908720748007851
:104EA000B8B90348D0F87002172809D910201FE0BC
:104EB0007823002038150020210000200F0000205A
:104EC000FE48D0F870020A21B0FBF1F201FB12009B
:104ED0000EE0FA48D0F87802172801D9102007E030
:104EE000F648D0F878020A21B0FBF1F201FB12007B
:104EF000F3494872F348007868B9F048D0F8740272
:104F00003C2801D9102013E0EC48D0F874020A21A3
:104F1000B0FBF1F00CE0E948D0F87C023C2801D964
:104F2000102005E0E548D0F87C020A21B0FBF1F042
:104F3000E3498872E348007880B9E048D0F8740209
:104F40003C2802D9102018E019E0DC48D0F874029F
:104F50000A21B0FBF1F201FB12000EE0D748D0F8B5
:104F60007C023C2801D9102007E0D448D0F87C020C
:104F70000A21B0FBF1F201FB1200D149C872D248FC
:104F8000007858B1D0480078012807D0CE48007882
:104F90000C2803D0CC4800780D2803D10320CB493E
:104FA000087002E00120C9490870C648007818B9A5
:104FB0001020C749087002E00820C549087031E296
:104FC0000420C2490870BF48007868B90020C04971
:104FD00008701120BA4988711320C871B748808AB7
:104FE00000B2BC49088014E11120B5498871132032
:104FF000C871B4480078012830D1B2490978481CFA
:1050000000EBD0714910012901D1142100E01521D4
:10501000AB4A1172A948D0F8B4026421B0FBF1F098
:1050200011464872A548D0F8B4026421B0FBF1F2F1
:1050300001FB12000A21B0FBF1F0A14988729F48E0
:10504000D0F8B4026421B0FBF1F201FB12000A2196
:10505000B0FBF1F201FB12009949C872994800783F
:10506000022830D197490978481C00EBD0714910CB
:10507000012901D1142100E01521914A11728F48B4
:10508000D0F8B8026421B0FBF1F0114648728B48A9
:10509000D0F8B8026421B0FBF1F201FB12000A2142
:1050A000B0FBF1F0864988728448D0F8B8026421D8
:1050B000B0FBF1F201FB12000A21B0FBF1F201FB9F
:1050C00012007F49C8727F480078032830D17D499B
:1050D0000978481C00EBD0714910012901D1142135
:1050E00000E01521764A11727448D0F80402642158
:1050F000B0FBF1F0114648727048D0F80402642108
:10510000B0FBF1F201FB12000A21B0FBF1F06C4997
:1051100088726A48D0F804026421B0FBF1F201FB06
:1051200012000A21B0FBF1F201FB12006449C872BF
:1051300064480078042830D162490978481C00EBA3
:10514000D0714910012901D1142100E015215C4AD8
:1051500011725A48D0F808026421B0FBF1F01146F0
:1051600048725648D0F808026421B0FBF1F201FB06
:1051700012000A21B0FBF1F0514988724F48D0F873
:1051800008026421B0FBF1F201FB12000A21B0FB1E
:10519000F1F201FB12004A49C8724848D0F8B00247
:1051A000CC2818D147480078012814D145490978FE
:1051B000481C00EBD0714910012901D1142100E0F5
:1051C00015213F4A11721020114648728872C87228
:1051D00000203E4908703948D0F80002CC2818D188
:1051E00038480078032814D136490978481C00EB68
:1051F000D0714910012901D1142100E01521304A54
:1052000011721020114648728872C87200202F490E
:1052100008702C480078012803D02A480078032819
:1052200003D110202A4908700AE026480078022895
:1052300003D024480078042802D1082024490870AB
:10524000BDE60020214908700E201D49C8711D4887
:10525000007848BB00201E490870112018490872C8
:105260001D48D0F8FC0B6421B0FBF1F014494872E2
:105270001948D0F8FC0B6421B0FBF1F201FB1200DD
:105280000A21B0FBF1F00E4988721348D0F8FC0BEC
:105290006421B0FBF1F201FB12000A21B0FBF1F234
:1052A00001FB12000649C8720648007801283CD16B
:1052B0001020074908700148C06F0FE078230020D4
:1052C000381500200F0000202100002011000020D0
:1052D000270000201C00002078150020AA281FD1DC
:1052E0001120FC490872FC4880686421B0FBF1F091
:1052F000F8494872F84880686421B0FBF1F201FB7C
:1053000012000A21B0FBF1F0F2498872F24880687D
:105310000A21B0FBF1F201FB1200EE49C87204E071
:105320001020EC4948728872C872EC480078022854
:1053300078D10820EA490870EA48406BE0B307F0EA
:1053400034F9E549096908444FF47A7190FBF1F0AA
:10535000E049087207F029F9DF49096908444FF468
:105360007A7190FBF1F201FB1200642190FBF1F0E5
:10537000D849487207F019F9D749096908444FF428
:105380007A7190FBF1F201FB1200642190FBF1F2C3
:1053900001FB12000A2190FBF1F0CE49887207F060
:1053A00004F9CD49096908440A2190FBF1F201FB97
:1053B0001200C849C87235E0FFE7C748C068C6494F
:1053C000096908444FF47A71B0FBF1F0C1490872E1
:1053D000C148C068C049096908446421B0FBF1F0C4
:1053E000BC494872BC48C068BB490969084464218B
:1053F000B0FBF1F201FB12000A21B0FBF1F0B5495C
:105400008872B548C068B449096908446421B0FB92
:10541000F1F201FB12000A21B0FBF1F201FB1200D4
:10542000AC49C872F8E30020AF490870AB48007877
:1054300080BB1120A74988710D20C871A648D0F8FB
:105440008000AA2818D1112008724872A248D0F80A
:1054500090000A21B0FBF1F09E4988729E48D0F876
:1054600090000A21B0FBF1F201FB12009949C872C9
:1054700000209E49087009E0112096490872487280
:1054800010208872C8720120984908700820944939
:10549000087023E0FFE79648007858B911208D493D
:1054A00088710D20C8710A200872002048720F20F0
:1054B0008872C8728E48007801280CD11120854965
:1054C00088710D20C8710A200872112048720020CE
:1054D00088721220C8720020814908709CE37F48BE
:1054E000007800BB0020804908701120794988713C
:1054F0000F20C871112008720020794908707D487A
:10550000C06828B90020734948720F208872C87299
:105510007848C068012806D111206E4948720020E1
:1055200088721220C8726D480078012819D11120A4
:10553000684988710A20C871192008726948006A90
:1055400020B9002048720F208872C8726548006A2E
:10555000012806D111205F4948720020887212206C
:10556000C87259E3002060490870112059498871B8
:1055700061480078C8710C2008725F480078401EAE
:10558000C0EBC0005D4951F82000FF280DD25A48F9
:105590000078401EC0EBC00051F8200028B15148EF
:1055A000406955490978884205D210204949487216
:1055B0008872C87232E050480078401EC0EBC000CC
:1055C0004E4951F820006421B0FBF1F04149487286
:1055D00049480078401EC0EBC000484951F82000FF
:1055E0006421B0FBF1F201FB12000A21B0FBF1F0E3
:1055F0003849887240480078401EC0EBC0003F49DF
:1056000051F820006421B0FBF1F201FB12000A21E5
:10561000B0FBF1F201FB12002E49C872FCE200203F
:10562000314908702D4800782A49C8711B2008723A
:105630002A480078401EC0EB0010314951F8300074
:105640006421B0FBF1F02349487224480078401EE1
:10565000C0EB00102A4951F830006421B0FBF1F290
:1056600001FB12000A21B0FBF1F01A4988721B48B5
:105670000078401EC0EB0010214951F83000642131
:10568000B0FBF1F201FB12000A21B0FBF1F201FBC9
:1056900012001049C87211480078401EC0EB00107B
:1056A000174951F83000401C68B10C480078401E82
:1056B000C0EB001051F8300028B10A488069074952
:1056C0000978884204D21020024948728872C87250
:1056D000A2E2000038150020782300200F000020EF
:1056E000270000207815002011000020170000205E
:1056F0000C00002058150020210000207C210020F3
:10570000982100200020FE4908701820FD49C8712A
:10571000FD48007858BBFD48B0F9480BB0F57A7FDA
:1057200026DA11200872F948B0F9480B642190FB81
:10573000F1F0F4494872F548B0F9480B642190FB48
:10574000F1F201FB12000A2190FBF1F0ED498872A1
:10575000EE48B0F9480B642190FBF1F201FB120016
:105760000A2190FBF1F201FB1200E649C87206E043
:105770001120E4490872092048728872C872E24810
:105780000078012836D1E2480078AA2827D11120D4
:10579000DC490872DF48D0F89C006421B0FBF1F0CE
:1057A000D8494872DB48D0F89C006421B0FBF1F284
:1057B00001FB12000A21B0FBF1F0D2498872D548F2
:1057C000D0F89C006421B0FBF1F201FB12000A2129
:1057D000B0FBF1F201FB1200CA49C8720AE0CC48E2
:1057E0000078CC2806D11120C649087210204872D2
:1057F0008872C872C4480078022816D10D20C149A9
:10580000087211204872C348D0F8A0000A21B0FBEA
:10581000F1F0BC498872BF48D0F8A0000A21B0FB63
:10582000F1F201FB1200B749C872B74800780328AB
:1058300019D1B9480078AA280BD10A20B149C871FA
:105840000120087211204872002088721220C8724C
:1058500009E00A20AB49C871012008720020487293
:105860000F208872C872A848007810B90020AB4990
:105870000870A5480078012802D10820A7490870BF
:10588000A1480078022803D09F480078032802D15D
:105890000020A2490870BFE10020994908700F203C
:1058A0009849C871994890F8D40B50B300209B498F
:1058B000087001209A490870112092490872934893
:1058C000406C6421B0FBF1F08E4948728F48406C07
:1058D0006421B0FBF1F201FB12000A21B0FBF1F0F0
:1058E000884988728948406C6421B0FBF1F201FB61
:1058F00012000A21B0FBF1F201FB12008149C872CB
:1059000009E000208649087011207E4908721020A5
:1059100048728872C8727FE111207A49887101202B
:10592000C8711820087278480078A8BB0020744914
:1059300008701120734988710120C87118200872FD
:105940007248C068FF281BD27048C0686421B0FB51
:10595000F1F06C4948726D48C0686421B0FBF1F207
:1059600001FB12000A21B0FBF1F06649887267481A
:10597000C0680A21B0FBF1F201FB12006149C87254
:105980006248C06818B16148C068FF2804D110207F
:105990005C4948728872C8725B48007801281DD142
:1059A0005A488068401C28B91020564948728872AD
:1059B000C87210E0554880680F2101EA1070514903
:1059C000487252488068C0F3036088724F4880680C
:1059D000C0F30350C8721020504908704A4800783C
:1059E00002281CD149488068401C28B9102045492C
:1059F00048728872C8720FE044488068C0F3034060
:105A00004049487241480089C0F3033088723F48DA
:105A10000089C0F30320C8720820404908703A4842
:105A2000007803281AD139488068401C30B9112009
:105A30003449487210208872C8720CE01120314934
:105A400048723248007AC0F3031088722F48007AF7
:105A500000F00F00C872182030490870DCE0002008
:105A60002749087011202749C871162008720E2096
:105A70004872052088721320C872CDE000202049AA
:105A8000087011201F4988710520C8711320087201
:105A90001E4800696421B0FBF1F01A4948721B48A6
:105AA00000696421B0FBF1F201FB12000A21B0FB96
:105AB000F1F014498872154800696421B0FBF1F2D5
:105AC00001FB12000A21B0FBF1F201FB12000D49AB
:105AD000C8720020114908709EE00B48007820BB76
