:020000040800F2
:10000000000C002047010008A5010008A701000816
:10001000A7010008A7010008A701000800000000D0
:10002000000000000000000000000000AF01000818
:10003000B10100080000000063E200080B020008A4
:1000400067010008670100086701000867010008F0
:1000500067010008670100086701000867010008E0
:1000600067010008670100081D0200086701000819
:1000700067010008670100086701000867010008C0
:1000800067010008670100086701000867010008B0
:10009000B501000867010008670100086701000852
:1000A0006701000867010008670100086701000890
:1000B000E7010008E90100080902000867010008DB
:1000C0006701000867010008670100086701000870
:1000D00067010008C701000867010008D90100088E
:1000E0006701000867010008670100086701000850
:1000F0006701000867010008670100086701000840
:10010000670100086701000867010008670100082F
:10011000670100086701000867010008670100081F
:10012000670100086701000867010008670100080F
:10013000DFF80CD00EF0F0FC004800477501000815
:1001400068480020704708488047084981F30888BC
:1001500007480047FEE7FEE7FEE7FEE7FEE7FEE7AB
:10016000FEE7FEE7FEE7FEE74501000868480020DD
:100170003101000810B50AF0B7FA0AF0E6FF48208E
:100180000AF0B4FA0BF002FD0D23044A00210448E2
:100190000DF04EFA0BF0F0FD002010BD4C020020D7
:1001A0000D1900087047FEE7FEE7FEE7FEE770471F
:1001B0007047704710B50BF05FFD01F005FBBDE81F
:1001C00010400BF063BD10B50BF056FD07F0D9F9E8
:1001D000BDE810400BF05ABD10B50BF04DFDBDE869
:1001E00010400BF053BD704710B50BF045FD0121D9
:1001F000124809F0E4FE1248D0F8C80B0DF02AF9B5
:10020000BDE810400BF042BD704710B50BF034FD57
:100210000BF0DDFDBDE810400BF038BD10B50BF064
:100220002BFD102009F040F820B1102009F04AF809
:1002300006F09EFFBDE810400BF028BD0004004012
:100240006015002008B500208DF800006B461C22C8
:100250006421FC480CF022FAFA495039C8649DF830
:100260000000002801D000F089FA08BD38B5F64832
:1002700006F0C4FF08B900F081FAF34C48F231618E
:100280002068884202D1606841280BD04FF0FF30CF
:100290000122C4E90202206160614120C4E900102A
:1002A00006F0B8FF694600200CF0F5FAE06138BDB1
:1002B000F8B5E448503806F0C0FF08B900F05EFA1F
:1002C000E04D48F23160503D6426296801248142A6
:1002D00002D1696841291AD08021E963C5E9034642
:1002E0002C622860412081216860C5E90D41286C9D
:1002F000411C00D028B94FF42A7028644FF4A02084
:10030000A864EC626C6406F0A4FF85F8054CE8680C
:10031000401EFE2800D3EC602869142808D032283B
:1003200006D0642804D07D2802D0FA2800D02E619F
:100330006869411C01D0012808D9C44806216C61B4
:100340000171046006F085FF06F0F2FFA869411C08
:1003500001D004282FD90420A861BD486521662654
:1003600001603121017186670B2600F108070A221E
:10037000D023C0F8806087E81C0080F87C10C0F8AB
:10038000FC304FF0FF319027C0F8F010C0E9217425
:10039000122380F8F430C0F80041C0F8F820C0F80B
:1003A000681180F86C31C0F87061C0E95D7406F0C6
:1003B0007FFF06F04EFF686B411C01D0012800D979
:1003C0006C63286B411C01D0012801D900202863EF
:1003D000694601200CF05FFAC5F8400B002005F5D6
:1003E00034650CF036FF686200200CF032FFE865DF
:1003F00000200CF02EFF286600200CF02AFF286455
:1004000000200CF026FFC5F88800F8BD2DE9F0416A
:100410008C4D503D6969481C07D0012905D88B488F
:1004200006F06AFF08B900F0A9F9A969481C22D0B2
:10043000042920D8864806F01FFF08B900F09EF96D
:1004400081490020824E07464FF0FF3C0C698B68C3
:10045000AD690EE0C0EB001106EBC10181F831C0BF
:1004600081F830708A680C2A07D01A4681F850202B
:10047000401C8542EED8BDE8F0812246F6E7F8B58B
:10048000744806F07AFF08B900F078F9714C48F228
:1004900031672068B84202D1606841287ED0AA2224
:1004A0004FF0FF30C4F85C21C4F86001C4E9832038
:1004B00005200121C4E95B0109201E25C4E95D0571
:1004C0000420C4E9890507250020C4E95F501626E9
:1004D000C4E96160C4E98B504FF49675C4F80452C6
:1004E0004FF48275C4F808528C25C4F8B452C8255C
:1004F000C4F8B852E2679625A560E56064252561D9
:100500000A23C4E98731C4E92431C4E98D60E16379
:100510002164CC256164C4E92025C4E92730C4E9FD
:100520000650002340F2555604EB830C5B1CCCF8BC
:100530002060072BF8DBE5642566C4F8A420C4E935
:100540002F20C4E933123C23C4E93103C4F8DC3062
:10055000C4E93815C4F8F850C4F80C51C4F8205157
:100560000C22C4F83451C4F84851C4E93520C4F809
:100570006401C4F86801C4F81402C4F80052C4F855
:10058000B052C4F8D051C4F8E851C4F88052C4F84D
:100590009852C4F818024121606100E018E0C4F8E4
:1005A0008850C4F8B8000F20C4F89800C4E900715E
:1005B0000020411C01EB810104EB80024900401C3A
:1005C000C2F8A8100428F4D36567A56706F0E3FE17
:1005D000694602200CF05FF9C4F8BC02F8BD2DE9B1
:1005E000F041184D0020503D0126194CFF27AB6902
:1005F00012E0C0EB001104EBC1010A79102A03D00C
:10060000112A01D0122A05D185F8D86B81F83270F1
:1006100081F86860401CC0B28342EAD895F8D80BD4
:1006200038B301200AF0FDFB0AF0CEFB95F8441028
:1006300000200AF05CFA00240AF01DFA60B10120E3
:1006400019E70000B0150020401500206C210020A3
:10065000882100206823002095F8441000200AF02B
:1006600046FA641CE4B2032CE6D3002085F8D80BCC
:1006700001E700200AF0D5FBE1E71FB503AA43A17B
:1006800000208DE807000A21424B022208460DF0A7
:100690003FFB4149C1F8CC0B03A90DF089FC1FBDFC
:1006A0001FB503AA3DA100208DE807003D4B0222A3
:1006B00064210A200DF02CFB3749C1F8D00B03A9A7
:1006C0000DF076FC1FBD30B533490F20092281F8AB
:1006D000E50B81F8E42B81F8E30B032081F8E60BAE
:1006E000082081F8E20B002081F8E10B81F8E00B93
:1006F0002D4BFF2081F8490B1869012810D10020EB
:100700002A4A1B7E8C6909E0C0EB001102EBC10193
:100710008D680C2D01D181F83230401C8442F3D811
:1007200030BD70B5FFF78EFDFFF7A0FDFFF7C0FDF0
:10073000FFF76CFEFFF7A3FEFFF7C5FF1C4800257F
:1007400080F8C0521B480BF059F8FFF748FF124CD5
:10075000012680B184F8066C84F8075C4FF40041F0
:10076000154807F0F4FD08B184F8076CFFF785FF22
:10077000BDE8704094E784F8065CEDE70F48016837
:100780000F4A01F4E061114301607047746D7231EA
:1007900000000000BD6A000860150020746D723210
:1007A00000000000956B0008401500208821002003
:1007B0006823002040210020000C01400CED00E0E7
:1007C0000400FA0502780123B3EB121F01D00020C8
:1007D00070474078062801D0F3200FE012F00F0098
:1007E0000BD0C0EBC002FC4800EB820010F81C2DBF
:1007F0004A700079887001207047F1200870FAE78C
:1008000002780223B3EB121F01D00020704740781A
:10081000062801D0F3200FE012F00F000BD0C0EB40
:100820000012EE4800EBC20010F8782D4A700079F3
:10083000887001207047F1200870FAE72DE9FC412B
:10084000037805460B700C460078F321E44E4FF018
:10085000F20C6E2875D042DCE24A4FF0110E4728A8
:1008600059D020DC4FF0000730286BD00ADC0E286E
:1008700069D2DFE800F06879688868969CA45068BF
:10088000506868C8342806D006DC3128FBD03228EE
:10089000F9D0332857D11BE140286FD042286ED0C1
:1008A0004528F7D15AE160286AD00DDCA0F1480054
:1008B0001028DDD2DFE800F0F7F6472F4747472F33
:1008C0002F2F47472F47472F61380C28D0D2DFE81A
:1008D00000F0F13AF03AEF3AEE3AEDEC3AEB9328C9
:1008E0007ED021DC7E28BBD00CDCA0F170000E286D
:1008F000BED2DFE800F0FE282828282828FD1010A6
:10090000101010108A28ABD006DC8028A8D08128CF
:10091000A6D08928BED178E2FF22902870D09128F5
:100920006FD09228B6D101E2B6286BD013DCA42890
:10093000F1D009DC9728EED0A028ECD0A128A9D1CD
:1009400063E2A7E17AE054E2A728E4D0A828E2D045
:10095000AB289FD159E2B738072889D2DFE800F0E9
:10096000FDFCFBFAF9F8F7006878032809D1862026
:1009700060703120A0706771BDE8FC81C5E0CBE0FC
:1009800010E12170F8E768780428FAD19068000E29
:1009900060709068000CA0701089000AE070107AF6
:1009A00017E168780228ECD1107B607005E0687868
:1009B0000228E6D1107D6070107EA070DCE76878B8
:1009C0000228DED11069142801D13220A0701069EC
:1009D000322801D13420A0701069642803D100E0CE
:1009E000ADE14120A07010697D2801D14320A070A5
:1009F0001069FA2801D14420A07084F801E0BBE717
:100A00006DE182E1A4E168780628BAD168460AF06F
:100A10007CFF88B19DF8050060709DF80400A0700F
:100A20009DF80300E0709DF8020020719DF8010020
:100A300060719DF8000088E0F42007E068780228E3
:100A40009FD1A878012885D010B1F120207093E7BC
:100A5000D6F85C01AA282ED0D6F80C02AA282AD0F3
:100A6000D06B20F08000D063F06FAA28D06B26D026
:100A700020F04000D063D6F88000AA28D06B21D0A7
:100A800020F01000D063D6F88400AA28D06B1CD0C8
:100A900020F00800D06392F83C00607092F83400B7
:100AA00000018AE779E067E0E5E0D5E0CBE0BBE074
:100AB000ABE09BE07FE0D06B40F08000D3E740F0FC
:100AC0004000D7E740F01000DCE740F00800E1E725
:100AD0006878032899D103F00F00C0EB00113F485C
:100AE00000EBC10010F86C1C617010F8681C01E08C
:100AF000EEE0DEE001F00F01A17010F8702D42EA87
:100B00000111A1700089000934E06878012897D1AB
:100B100096F87C0060702FE76878062890D106F080
:100B200022FE054606F000FE31690144280A607085
:100B3000A570F06FCC2801D16070A770080AE07032
:100B40002171308A000A6071307CA07114E740E1A5
:100B500030E120E110E10CE108E1FCE068780328D5
:100B6000B8D116F8800F6070307CA07070690128D1
:100B700000D01120E070FFE668780228AAD11A4858
:100B8000C168012031B16070116A002989D184F8EF
:100B900002E0F1E684F801E0F6E7687803283FF424
:100BA000F0AEE9E66878022894D196F85C016070AE
:100BB00096F8600101E7687804288BD196F86C01FB
:100BC000607096F87001A07096F87401E07096F865
:100BD00078012071D0E600006C21002088210020DF
:100BE0006823002060150020401500206878042844
:100BF0008DD196F87C01607096F88001A07096F80F
:100C00008401E07096F88801E3E76878042885D1CC
:100C100096F88C01607096F89001A07096F8940197
:100C2000E07096F89801D4E76878042898D196F88F
:100C30009C01607096F8A001A07096F8A401E07085
:100C400096F8A801C5E76878022889D196F80C02C1
:100C5000607096F81002B0E6687804288ED196F895
:100C60001C02607096F82002A07096F82402E070D2
:100C700096F82802ADE76878042895D196F82C02FA
:100C8000607096F83002A07096F83402E07096F822
:100C900038029EE76878042886D196F83C02607096
:100CA00096F84002A07096F84402E07096F8480268
:100CB0008FE7687804289BD196F84C02607096F80C
:100CC0005002A07096F85402E07096F8580280E73F
:100CD000687802288CD1307E6070307F6DE668784D
:100CE000042885D1D6F8C001B02809D0607096F8E4
:100CF000C401A07096F8C801E07096F8CC0168E7CE
:100D00006270A270E270227136E6687804288DD194
:100D1000D6F87002B028F3D0607096F87402A07014
:100D200096F87802E07096F87C0252E7687802281C
:100D30008BD196F86401607096F868013DE668789A
:100D400002288BD196F81402607096F8180234E6E7
:100D500016F8BC0F01E016F8D00F60703079A07063
:100D6000307AE070307B2071307C40E016F8E40F80
:100D7000F3E716F8F80FF0E796F80C01607096F8B4
:100D80001001A07096F81401E07096F81801207117
:100D900096F81C012BE096F82001607096F824016B
:100DA000A07096F82801E07096F82C01207196F852
:100DB00030011CE096F83401607096F83801A0709C
:100DC00096F83C01E07096F84001207196F84401D5
:100DD0000DE096F84801607096F84C01A07096F806
:100DE0005001E07096F85401207196F85801607136
:100DF000C2E521462846FFF7E5FC002884D12146BC
:100E00002846FFF7FDFC0028F2D184F800C0B3E5C6
:100E1000A44A0021017091684B1C03D0012903D022
:100E200021B105E0042102E0082100E00C2101705D
:100E300011694B1C03D0012905D041B10BE00178A9
:100E400041F0100106E0017841F0200102E0017854
:100E500041F030010170D1680029017803D041F0E0
:100E600001010170704741F00301FAE7F0B50C464B
:100E70000146007820700878012815D0F3228A4DA9
:100E800001268A4F4FF0000C032811D0042840D0CF
:100E9000F223072807D00226B6EB101F03D14978AA
:100EA000022970D0227091E0601CBDE8F040AFE7ED
:100EB000487806282BD1601CFFF7AAFF7C4890F8E1
:100EC000C01221B1AA21A17080F8C0C201E0CC20DB
:100ED000A070002017E0C0EB001105EBC10191F8F4
:100EE000301001290ED1072806DA2179421C06FAB2
:100EF00002F21143217105E0E178C21F06FA02F205
:100F00001143E170401CB9698142E4D8F0BD227000
:100F1000F0BD48780628FAD197F8E80B08B1002010
:100F200000E01120607097F8440B032801D3612082
:100F3000A07097F8E70B08B13120A07097F84A0B22
:100F40000A2801D35120A07000205A4916E0C0EBB6
:100F5000C00201EB82029269032A0ED3072806DA47
:100F60002279431C06FA03F31A43227105E0E27862
:100F7000C31F06FA03F31A43E270401C7A698242E7
:100F8000E5D8002017E01AE0C0EB001105EBC10125
:100F9000C96C03290ED3072806DAA179421C06FA88
:100FA00002F21143A17105E06179C21F06FA02F253
:100FB00011436171401CB9698142E5D8F0BD10F060
:100FC0000F0001D0042803D9F12020702370F0BD58
:100FD000C0EB001005EBC00010F8741D6170806C50
:100FE0000028F4D0EE20A070F0BDF0B502780A70B1
:100FF0000278012A01D0F22003E04078072802D0CD
:10100000F3200870F0BD00221046CC240B18401CC1
:101010005C700728FADB254D0020264E6F690CE036
:10102000C0EBC00306EB83031B79062B03D0072B11
:1010300001D0082B00D1521C401C8742F0D87AB155
:10104000B5F8000C030A4B70887095F8530B28B163
:101050003020C870002318466A690DE01020F8E7B8
:101060004C708C70C020F4E7C0EBC00706EB87071C
:101070003F79052F03D0401C8242F5D853B1B5F813
:101080004C2BC878C2F303221043C87095F84C0B60
:10109000087104E0C87840F00C00C8700C714C7105
:1010A0008C71F0BD401500208821002060150020C3
:1010B000682300206C210020F8B50C460022815CDA
:1010C000A154521C082AFADB0D21E1710178012993
:1010D00003D002293CD0F2202CE000228DF8002021
:1010E000417801F00C018DF800109DF80060012599
:1010F000FB49F323042E1FD09DF80060082E1FD05B
:101100009DF800600C2E1DD06370E371407800F0F4
:1011100003008DF800009DF80000012814D09DF810
:101120000000032812D06370E37106F073F8002802
:1011300001D1F420E071F8BD4FF0FF368E60E5E795
:101140008D60E3E78A60E1E7CD60EEE7CA60ECE737
:1011500041785229EFD180785328ECD1E1480168D9
:10116000E14A01F4E06111430160F8BD2DE9FC4161
:101170000C460021425C6254491C0829FADB0D210F
:10118000E1710178F223F425D84A6A2970D04CDC49
:10119000D74E41296DD024DC12296BD00DDCA1F192
:1011A00003014FF0F3070B2964D2DFE801F0756308
:1011B00089919E6363636363C900CE4F322908D06F
:1011C00008DC232977D0242975D0302974D031291F
:1011D00050D133E13329FCD03429FAD04029F7D15A
:1011E00061E15129D9D00DDCA1F142014FF0000C91
:1011F0004FF001070729D7D2DFE801F0FB3C3CFAAA
:101200003C3CF90063296ED008DC5429C5D057292D
:10121000C3D0602968D06129DAD1A1E165297DD0E8
:1012200067297CD06929D3D1CEE1922978D022DCFC
:101230007C2915D00DDCA1F16C06102EB4D2DFE8AC
:1012400006F0F119F019EF191919191919EE0F0F04
:101250000F0F8929A1D004DC7D29EAD07E29B7D1DE
:10126000F4E18A2999D090297ED09129B0D105E264
:10127000B3E11BE17AE0B62977D004DCA42975DA62
:101280009329A5D10EE2B73907298DD2DFE801F005
:10129000FEFDFCFBFAF9F8000179B160C27841EA81
:1012A0000221B160827841EA0241B160407841EAAE
:1012B0000060B06014E07EE08AE0E571BDE8FC818A
:1012C00041788078814253D10029F7D0F1602CE039
:1012D0004178012900D871618078042800D8B06174
:1012E00005F0B7FFA7E048E131E141781129E5D1E8
:1012F0008178322901D1142131618178342901D1D9
:10130000322131618178412901D1642131618178B3
:10131000432901D17D213161807802E03AE146E143
:10132000B9E1442801D1FA20306105F092FF00288C
:10133000C3D0B08981B2307CBDE8FC4109F00CBE5D
:101340004178992914D88278122A11D882B1C278AA
:10135000312A0DD862B10279232A09D84279592A53
:1013600006D88279592A02E07BE1A2E1B2E001D9F4
:10137000E771A3E78DF8051081788DF80410C17826
:101380008DF8031001798DF8021041798DF8011064
:1013900080798DF800000CF043FF064668460AF09D
:1013A00061FA074630460CF03FFF002F85D05248C7
:1013B00009F0C8F882E701F00F01C1EB011107EB5A
:1013C000C101827801F8742C407841F8780C67E00C
:1013D0004078C1077ED1F06306064FF0AA014FF0B6
:1013E000CC0307D5C2F85C11C2F80C1206E097E0F6
:1013F00084E068E0C2F85C31C2F80C32460601D5E0
:10140000D16700E0D367C60602D5C2F8801001E0BC
:10141000C2F88030000706D5C2F8841005E010E15C
:1014200002E1F4E0E6E0C2F8843005F012FF0028A3
:1014300000D1E57195E10028B8D03FE7827801F04E
:101440000F0102F00F020C2A44D0C1EB011107EB8F
:10145000C101437841F86C3C827802F00F0241F8F8
:10146000702CC67841F8686C360180780B2A46EA01
:10147000101041F8680C0CD00C2A0AD00A2A06E099
:1014800060E14FE13EE12DE121E11CE117E103D0F4
:1014900006E003F0BF0001E003F0DF0041F86C0C50
:1014A00005F006FFC7E74078D0675AE14178EE299A
:1014B000C3D18078AA28C0D1D06FAA28BDD1BDE8F9
:1014C000FC4104F036B830F8011F49BA91604188F8
:1014D00049BA00E048E1D160808840BAEDE0000000
:1014E000401500200CED00E00400FA056823002000
:1014F0006015002088210020402100204178C2F89A
:1015000080108178C2F8901009B9C2F89070C07844
:10151000012802D0C2F894C023E1C2F8947020E1FF
:1015200042789249112A08D0CF608078112807D0DC
:10153000376205F08EFE30B106E0C1F80CC0F4E76A
:10154000C6F820C0F5E7E57105F064FE73E7417861
:10155000C2F85C118078010601D5C2F8600100E193
:101560004178C2F86C118178C2F87011C178C2F864
:1015700074110079C2F87801F3E04178C2F87C1167
:101580008178C2F88011C178C2F884110079C2F85C
:101590008801E6E04178C2F88C118178C2F8901198
:1015A000C178C2F894110079C2F89801D9E0417865
:1015B000C2F89C118178C2F8A011C178C2F8A411B8
:1015C0000079C2F8A801CCE04178C2F80C1280780A
:1015D000010601D5C2F81002C3E04178C2F81C121E
:1015E0008178C2F82012C178C2F824120079C2F8BA
:1015F0002802B6E04178C2F82C128178C2F8301285
:10160000C178C2F834120079C2F83802A9E04178F2
:10161000C2F83C128178C2F84012C178C2F8441274
:101620000079C2F848029CE04178C2F84C128178F7
:10163000C2F85012C178C2F854120079C2F85802A8
:101640008FE0417891618078D0618AE001F00703F2
:1016500002EB830241781162807840EA0120106237
:101660007FE04178C2F8C0118178C2F8C411C17816
:10167000C2F8C8110079C2F8CC0172E04178C2F812
:1016800070128178C2F87412C178C2F878120079A9
:10169000C2F87C0265E04178C2F864118078C2F833
:1016A00068015EE04178C2F814128078C2F818022E
:1016B00057E0417842F8BC1F0CE0106151E04178DE
:1016C00042F8D01F06E0417842F8E41F02E041787A
:1016D00042F8F81F81785160C17891600179D1603A
:1016E0004079EAE74178C2F80C118178C2F810110C
:1016F000C178C2F814110179C2F818114079C2F802
:101700001C012EE04178C2F820118178C2F8241122
:10171000C178C2F828110179C2F82C114079C2F8B9
:1017200030011EE04178C2F834118178C2F83811D6
:10173000C178C2F83C110179C2F840114079C2F871
:1017400044010EE04178C2F848118178C2F84C118A
:10175000C178C2F850110179C2F854114079C2F829
:10176000580105F018FE66E6E371A7E54015002074
:10177000634805F076F9634DA88981B2287C09F0A9
:10178000EBFB0CF04DFD06465D4805F06DF948B1E8
:1017900030460CF049FD00223223114610460CF071
:1017A0002EFAEEE7564805F070F9044630460CF084
:1017B0003BFD002CEFD004F1080000F025F8214695
:1017C000E86C0AF0DBFFE6E738B54E4D00208DF8F7
:1017D00000006946E86C0AF08CFF040013D04FF457
:1017E000B470C5F8EC0B04F108020021464807F07C
:1017F0000DFB0CF015FD05462146414805F051F959
:1018000028460CF011FD38BDF0B587B00025044620
:10181000059500F10B010695807C012605281FD057
:101820000026276817F0FF0F2DD0002E2BD00024A4
:101830000A2008F094FF8DF809508DF80850082010
:1018400000978DF80A000598CDF80B0006982E4EEB
:10185000CDF80F006946304607F027FA05460AE042
:10186000208805AAC0F3022000F00FF8D9E7641C15
:10187000E4B2C82C07D82946304607F069FA012897
:1018800001D0FF2CF3D107B0F0BDF8B51D4C0E46CA
:101890000146D4F8400B154608292DD2DFE801F0A7
:1018A0002C042C0A10162C1F29463046BDE8F8409F
:1018B000FFF7DCBA29463046BDE8F840FEF7BEBF68
:1018C00029463046BDE8F840FFF78FBB6A46002145
:1018D0000BF0C1F829463046FFF7EEFB07E06A46F9
:1018E00000210BF0B8F829463046FFF73FFCD4F84A
:1018F000400B0BF088F9F8BDF1202870F8BD00000E
:1019000000000020601500200064004088B03248CC
:10191000069000F53968A0F55070059000F500704C
:1019200000F5507B00F5E86A049000F56D60012435
:1019300004251026A0F5CA6903900CF071FC074637
:10194000062009F0CAFC07F0C0FE0096CDE901545C
:10195000192311220421022009F0ECFC1F4808F091
:10196000DFFEFEF7DEFE07F0B0FE052300211C4877
:10197000069A0BF05DFE06234246002119480BF043
:1019800057FE082300211848059A0BF051FE072343
:1019900000211648049A0BF04BFE09235A460021F9
:1019A00013480BF045FE0B235246002111480BF063
:1019B0003FFE0A2300211048039A0BF039FE0C2346
:1019C0004A4600210D480BF033FEFF200CF043F88F
:1019D00038460CF029FCB0E78C07002080841E00FC
:1019E00079550008C97E000839750008711700088C
:1019F000FD6500084154000801710008057A0008DF
:101A0000F9490979002900D011207047F64A937BE3
:101A1000994202D053788B4203D11179002900D02A
:101A200011207047F0B5F34F00200E25DFF8BCC33E
:101A30001326EF4B7C6927E0EF490988012916D06E
:101A4000C0EBC0010CEB8102D2F818E0BEF1030F2D
:101A500018D35CF82110A9B1491C13D01179091FC2
:101A600006290FD2DFE801F006080B0B0E0D0C2043
:101A7000D8710BE0162100E01821D97102E0DD7168
:101A800000E0DE71401CC0B28442D5D897F8440B08
:101A9000032800D3DE710021D84DBE6926E0C1EBDA
:101AA000011405EBC4000279112A03D0122A01D0D7
:101AB000102A09D1C76C032F06D355F834401CB146
:101AC000FF2C01D01B200DE04469012C06D1302AE7
:101AD00004D1C26A032A01D3192003E090F852000E
:101AE00010B11020D871F0BD491CC9B28E42D6D8B1
:101AF000F0BD2DE9FE4FDFF8F0A24FF0000B9AF891
:101B0000170000287ED1BA4C50469AF809604379F4
:101B1000417B90F80BE094F809C0A77A807DE57AC4
:101B2000E27994F80890082E6DD006DC6AD2DFE8DE
:101B300006F025FDFCFBFAF9F8F7262E71D00CDC37
:101B4000092E6FD0102E6ED0132E6DD0172E6CD1A3
:101B5000D046BEF1010F7DD08DE0282E67D0292E12
:101B600077D0FF2EF3D19AF80A1016200090CDE915
:101B700001010E231122002102205EE0A0498968A4
:101B80004A1C0BD001295BD00029E0D10F21CDE9FF
:101B900000B1029111230E2200214EE0954F112633
:101BA000E67197F8E80B012801D11220E071FFF7E8
:101BB00039FF97F8E00B554600F0010191488AF88B
:101BC0000D10007810B14020A87501E085F816B01E
:101BD000A67197F8E22B0A2A01D2112302E00A200B
:101BE000B2FBF0F30A20B2FBF0F600FB16262372DC
:101BF000667297F8E17BB7FBF0F200FB1277A272F6
:101C0000E77201E055E2DBE3E079122810D0FFF73C
:101C1000F7FE0246607AE37AA17A8DE80B00237A18
:101C2000FEE3FEE3FEE303E337E3FCE312E0FBE362
:101C3000CDE900620297122280E309F07BFB38E2D3
:101C4000182012218AF816001123CDE9003B0291D9
:101C5000A0E7EAE36749012B91F8E01B01F00101DD
:101C600088F80D100DD0CDE900C74B46029509F05C
:101C700061FB88F816B098F80B00454602281CD086
:101C800037E003212846FFF7C1FE0746A07A02216C
:101C9000FFF7BCFE0646607A0121FFF7B7FE054656
:101CA000207A0021FFF7B2FE8DE8E0000346E279DA
:101CB00098F80D1098F81600D9E74E4A92F8E00B04
:101CC00000F00101697392F8E16B0A22B6FBF2F3AE
:101CD00002FB1367B0FBF2F62372677202FB160079
:101CE000A672E0720097CDE90160E279A87D09F063
:101CF00021FBE87A032810D168736879012818D08D
:101D0000607AE27AA17A8DE80700237AE2790021ED
:101D1000A87D09F00FFB85F816B0E87A042806E0E4
:101D20002FE31AE3D1E23FE2DDE06DE040E01ED0B8
:101D3000BFE1E07A0421FFF769FE8446A07A03211F
:101D4000FFF764FE0746607A0221FFF75FFE064652
:101D5000207A0121FFF75AFE8046E0790021FFF743
:101D600055FE8DE8C010024643460021D0E785F8B5
:101D70000DB068795E4601280CD0607AE27AA17ACB
:101D80008DE80700237AE2790021A87D09F0D2FAD4
:101D9000AE758EE1E07A0321FFF738FE0746A07AA0
:101DA0000221FFF733FE617ACDE900100297E9E7DF
:101DB000012B33D103212846FFF728FE0746A07ADE
:101DC0000221FFF723FE0646607A0121FFF71EFE7F
:101DD0000546207A0021FFF719FE8DE8E000034652
:101DE000E2799AF80D10A9E2080000206C21002089
:101DF00020150020601500209C0000208821002074
:101E000040150020480000205646BEF1000F06D0C5
:101E10000421D0468AF80D10012B4CD0CDE186F874
:101E200016B01120A0711322FE48E271B6F91C70A1
:101E3000B0F9460B5D46C01909D4112727724FF03F
:101E4000640C90FBFCF767720CFB17070AE0102785
:101E50002772C7434FF0640C7F1C97FBFCF00CFB10
:101E6000107760724FF00A0C97FBFCF0A0720CFB2D
:101E70001070E0725746012B07D0C6B2607AA37A81
:101E80008DE84900237A2846D7E6C0B20321FFF740
:101E9000BDFD0546A07A0221FFF7B8FD0646607A2F
:101EA0000121FFF7B3FDCDE900060295237AE2791F
:101EB000797BB87DC1E603212846FFF7A7FD0546DB
:101EC000A07A0221FFF7A2FD0646607A0121FFF702
:101ED0009DFDCDE900060295237AE27998F80D1070
:101EE00098F81600A9E6CF4B64254FF00A08D3F8FE
:101EF000007C93F8F16BB7FBF5F305FB1375B5FBAD
:101F0000F8FC08FB1C554FF00E09CDF800C0C6B117
:101F1000C44E96F8F27BE7B386F8F2BB86F8F6BBC0
:101F200086F8F8BB86F8F4BB86F8F7BB86F8F9BBF1
:101F300086F8F3BB86F8FABB86F8F1BB8AF803B0E3
:101F400026E1BEF1000F1AD14FF47A7CB7FBFCF00A
:101F5000C3B20CFB10776420B7FBF0F084F8079055
:101F60008AF816B02372C7B267720098A072E57241
:101F70000097CDE901054A46584609F0DBF99AF881
:101F80000B00554601281FD1687990B1E07A0321F2
:101F900000E037E0FFF73AFD0746A07A0221FFF79D
:101FA00035FD0646607A0121FFF730FD8DE8C1005E
:101FB00004E0607AE27AA17A8DE80700237AE27978
:101FC000697BA87D09F0B6F9E87A022871D16879B1
:101FD00080B1E07A0321FFF719FD0746A07A0221BC
:101FE000FFF714FD0646607A0121FFF70FFD8DE82B
:101FF000C10004E0607AE27AA17A8DE80700237AD2
:10200000E279AEE2DFF820C296F8F68BDCF80870D1
:10201000B8F1000F33D096F8F8CBBCF1000F0AD01E
:1020200096F8F43B03B3162584F8089065724B4686
:10203000A57215266BE010208AF816001120207278
:1020400063720098A0725646E5722846FFF7D8FCE6
:102050000246A07AFFF7D4FC0346607AFFF7D0FC73
:10206000CDE900030292BDE04FF0640CB7FBFCF534
:1020700011232372EEB20CFB157766727CE0694B7C
:1020800096F8F75B4FF00B0893F8F53B45B396F8DD
:10209000F95B55B196F8F35B65B1162584F80890A5
:1020A00065724B46A572142631E005F01FFB08212E
:1020B00034E01CE223BBDCE903351D444FF47A779E
:1020C000B5FBF7F6F3B207FB16566427B6FBF7F637
:1020D000B5FBF7FC2372F6B207FB1C5766724BE0A8
:1020E00096F8FA5BD5B34F4DDFF840C196F8FB6B1D
:1020F00095F8FC5BC5EBC5050CEB850566B173B3C4
:1021000084F80890162565724B46A5724646E6721D
:102110000095CDE9015690E5288A18218AF8161015
:10212000112121726422B0FBF2F102FB11006172F5
:102130000A22B0FBF2F102FB1100A1725546E072D7
:10214000FFF75EFC0246A07AFFF75AFC0346607A6E
:10215000FFF756FCCDE90003029250E718E0FFE7D5
:10216000AB684FF0640CFD18B5FBFCF7FEB2112311
:1021700023720CFB175766724FF00A0CB7FBFCF585
:102180000CFB1577A572E772CDE90065029754E55F
:102190000A231925237265721326A6725F4684F8F6
:1021A0000BB08DE8E00048E55646BEF1000F02D0C6
:1021B000012B25D001E0012B04D0CDE900C74B460F
:1021C00002953AE5307C012810D003212846FFF71C
:1021D0001DFC0546A07A0221FFF718FC617A0295E2
:1021E000CDE90010237AE279717B25E22846FFF7DA
:1021F00007FC0246A07AFFF703FC617A0292EFE740
:102200002846FFF7FDFB0346A07AFFF7F9FB0246DD
:10221000607AFFF7F5FB8DE80D00237AE279717B98
:102220000AE2000060150020682300206C210020D5
:10223000012B0FD0CDE900C74B46029509F07AF883
:102240009AF80B00F0B101281FD002281FD00328F4
:1022500021D0E0E103212846FFF7D8FB0546A07A0C
:102260000221FFF7D3FB0646607A0121FFF7CEFB80
:10227000CDE900060295237AE2799AF80D109AF8D2
:102280001600DBE78AF816B0C5E1102000E0082050
:102290008AF81600BFE11820FAE72846FFF7B0FBDE
:1022A0000646A07AFFF7ACFB0546607AFFF7A8FB6D
:1022B0000246207AFFF7A4FB8DE864000346E2792A
:1022C00054469AF80D10022076E1BEF1000F25D198
:1022D0005646012B0BD0CDE900C74B46029509F0BD
:1022E00029F8FE48C068012814D0A8B116E0284695
:1022F000FFF786FB0246A07AFFF782FB0346607A6F
:10230000FFF77EFBCDE900030292237AE279717B2D
:10231000B07DE4E7102000E00820B0759AF80B00CB
:102320005546012895D16879012808D0607AE27A6B
:10233000A17A8DE80700237AE279697B55E1E07A9A
:10234000FFF75EFB0346A07AFFF75AFB0246607A6E
:10235000FFF756FB8DE80D0051E6012B13D12846FF
:10236000FFF74EFB0246A07AFFF74AFB0346607A6E
:10237000FFF746FBCDE9000302921AE008F0DAFF0E
:1023800080E7012B04D0CDE900C74B460295F5E765
:1023900003212846FFF73AFB0546A07A0221FFF702
:1023A00035FB0646607A0121FFF730FBCDE90006D8
:1023B0000295237AE2799AF80D109AF81600DDE773
:1023C000BEF1000F2BD111252572A946C44D4FF443
:1023D0007A764FF00A08B5F94C5B95FBF6F706FBE9
:1023E0001757642697FBF6F707F0FF0C95FBF6F7F7
:1023F00006FB175797FBF8F6F7B2464695FBF6F83B
:1024000006FB185584F809C0A772EDB2E572012BDE
:1024100012D0CDE900C74B46029508F08BFF05E0CE
:102420009FE0B0E0C0E056E1E2E0E4E09AF80B00A3
:102430005546012817D038E003212846FFF7E6FA71
:102440000646A07A0221FFF7E1FA0546607A0121EB
:10245000FFF7DCFA8DE86100237AE2799AF80D1033
:102460009AF81600D9E76879012805D0607AE27AEF
:10247000A17A8DE8070012E0287C0128E07A18D0C4
:102480000321FFF7C3FA0746A07A0221FFF7BEFA3D
:102490000646607A0121FFF7B9FA8DE8C100237A78
:1024A000E279697BA87D08F045FFE87A02280DD023
:1024B0001AE0FFF7A5FA0346A07AFFF7A1FA024651
:1024C000607AFFF79DFA8DE80D00E8E7687901284A
:1024D0000ED0607AE27AA17A8DE80700237AE27959
:1024E000697BA87D08F026FFE87A03280ED092E0E9
:1024F000E07A0321FFF78AFA0646A07A0221FFF765
:1025000085FA617ACDE900100296E7E7287EAA28CD
:102510000DD1687901280ED0E27AA17A11208DE8D8
:102520000700237AE279697BA87D08F003FF287E03
:10253000CC280CD06FE01220FFF762FA0246002090
:10254000FFF75EFA1121CDE900100292E9E7687900
:10255000012809D0607AE27AA17A8DE80700237A0F
:102560000A22697BA87D8FE40F20FFF749FA024613
:102570000F20FFF745FA03460020FFF741FACDE9A7
:1025800000030292EBE7012B10D12846FFF738FA3F
:102590000246A07AFFF734FA0346607AFFF730FA72
:1025A000CDE9000302921DE0012B0AD04B46002129
:1025B0000295CDE900C7544608F0BCFE84F816B079
:1025C00029E003212846FFF721FA0546A07A0221D7
:1025D000FFF71CFA0646607A0121FFF717FACDE9EA
:1025E00000060295237AE27900219AF816004BE45E
:1025F0004B460295DDE75646BEF1000F08D1182084
:10260000B075CDE900C74B460421029508F092FE53
:10261000F07A012805D09AF817005446012816D000
:1026200023E07079012809D0607AE27AA17A8DE8F6
:102630000700237AE2790421B07D25E4E07AFFF7F0
:10264000DFF9A27A617A0091CDE90120F1E7182043
:10265000A075617901290CD011231221CDE9003B2D
:1026600002910E22002108F065FEE07D022810D0C4
:102670001EE01220FFF7C4F902460020FFF7C0F960
:1026800011210091CDE901020B460E220021A07D0F
:10269000E9E784F816B061795846012922D00F2164
:1026A000CDE90001029111230E22002108F042FE23
:1026B000E07D03280FD184F816B0617958460129CE
:1026C00023D013211922CDE900210A2302900E22E2
:1026D000002108F02FFEBDE8FE8F0000401500200D
:1026E000601500200F20FFF78BF902460F20FFF73F
:1026F00087F903460020FFF783F9CDE90003029232
:1027000011230E220021A07DD0E70020FFF778F9E9
:1027100006461320FFF774F905461920FFF770F9F4
:1027200002460A20FFF76CF98DE8640003460E228A
:102730000021A07DCDE710B5F949012000224873A2
:102740004A72A020CA7248700A750A73F54C8A73DF
:10275000104611232354401CC0B20C28FAD3F2486F
:10276000CA7590F894000872CA744A718A718A75A1
:102770004A740A7010BD2DE9F05FE94808230A2465
:1027800090F809C0E84D0021012611271822C07ACF
:102790004FF00D0B4FF0130A4FF0120E4FF00F09D0
:1027A000BCF1080F7ED00ADCDD4ABCF1080F127DB7
:1027B0001ED2DFE80CF01D98FEFDFCFBFAF90525A2
:1027C000BCF1170F3CD015DCBCF1090F6BD0BCF18C
:1027D000100F69D0BCF1130F0AD1D1484173D14811
:1027E0001621C77101720E214172857280F80BA00B
:1027F000BDE8F09FBCF1260F72D0BCF1280F70D05D
:10280000BCF1290FF4D1C64B00286BD00128EFD1C1
:1028100004205873C34807226426C7710272C34A52
:10282000126CB2FBF6F5457206FB1525B5FBF4F507
:102830008572B2FBF4F504FB1522C2729975D7E7D5
:10284000B74B01280CD0032833D00428D0D1B54889
:102850005973022202724172B44991F8E51B1EE0DD
:10286000B248DA7C90F8E00B00F0010052B1012A86
:10287000BED15873AB48017241728172C1728771C7
:10288000C771B5E7A94D5873A64895F8E21BB1FB8F
:10289000F4F204FB12110272417295F8E11BB1FBD4
:1028A000F4F202E0EFE3EFE3EFE304FB12118272D4
:1028B000E4E79E4B9B4893F8E41BB1FBF4F204FB66
:1028C00012110272417293F8E31BB1FBF4F204FBA4
:1028D00012118272C172877193F8E61BC17187E78A
:1028E000FEE3FEE3FEE3DFF838A28E499AF80C70AF
:1028F000CF7112B1012A67D042E0D5F85C51AA2D00
:1029000066D1894F4FF00A0CD7F86C51D7F8747123
:10291000B5FBFCF8B7FBFCFCC14620B10C2F05D978
:102920004FF0100803E00C2DFAD800E0E04681F8E3
:10293000088018B10C2F06D9102506E00C2DFBD805
:1029400004FB195501E004FB1C75DFF8DC814D72B6
:102950000A25D8F870C1D8F87871BCFBF5F96AE09F
:102960004D4602E0102500E045468D7210B11F2F44
:102970006BD86CE0BCF11F0F67D804FB19C5CD7292
:10298000951ED146052D0BD8022A63D0032A72D09A
:10299000042A71D0052A70D0062A6FD0072A6ED07B
:1029A0000E2A6DD00F2A05E07DE353E32CE3EBE222
:1029B00067E206E271D0002A70D0012AFCD00C2A0E
:1029C000FAD00D2AF8D0B4E1D5F80C52AA2D04D0D3
:1029D00010250D724D728D72D1E7534F4FF00A0CD6
:1029E000D7F81C52D7F82472B5FBFCF8B7FBFCFCF7
:1029F000C14620B10C2F05D94FF0100803E00C2D73
:102A0000FAD800E0E04681F8088018B10C2F06D90A
:102A1000102506E00C2DFBD804FB195501E004FB42
:102A20001C75DFF804814D720A25D8F820C2D8F849
:102A30002872BCFBF5F9B7FBF5F810B11F2F93D93D
:102A400090E7BCF11F0F8DD88AE7102597E704FBAC
:102A5000187594E7344A4FF00A0CD2F87C51D2F83A
:102A60008421B5FBFCF7B2FBFCFC50B1172A0CD952
:102A70004FF010080AE024E05AE088E0B6E0E4E015
:102A800012E1172DF4D8B84600E0E04681F808803E
:102A900028B1172A08D9102208E050E189E1172D42
:102AA000F9D804FB175201E004FB1C224A721E4AAB
:102AB0004FF00A0CD2F88051D2F88821B5FBFCF710
:102AC0006CE1194A4FF00A0CD2F88C51D2F89421DB
:102AD000B5FBFCF7B2FBFCFC20B1172A06D94FF07E
:102AE000100804E0172DFAD8B84600E0E04681F857
:102AF000088018B1172A06D9102206E0172DFBD836
:102B000004FB175201E004FB1C224A72064A4FF0F4
:102B10000A0CD2F89051D2F89821B5FBFCF73DE1B0
:102B200008000020201500206823002060150020E8
:102B3000FA4A4FF00A0CD2F89C51D2F8A421B5FB06
:102B4000FCF7B2FBFCFC20B1172A06D94FF01008A5
:102B500004E0172DFAD8B84600E0E04681F8088076
:102B600018B1172A06D9102206E0172DFBD804FB4E
:102B7000175201E004FB1C224A72E84A4FF00A0C8B
:102B8000D2F8A051D2F8A821B5FBFCF706E1E34A40
:102B90004FF00A0CD2F82C52D2F83422B5FBFCF7D5
:102BA000B2FBFCFC20B1172A06D94FF0100804E054
:102BB000172DFAD8B84600E0E04681F8088018B131
:102BC000172A06D9102206E0172DFBD804FB17524E
:102BD00001E004FB1C224A72D04A4FF00A0CD2F8E2
:102BE0003052D2F83822B5FBFCF7D7E0CB4A4FF091
:102BF0000A0CD2F83C52D2F84422B5FBFCF7B2FBE7
:102C0000FCFC20B1172A06D94FF0100804E0172D5C
:102C1000FAD8B84600E0E04681F8088018B1172AD3
:102C200006D9102206E0172DFBD804FB175201E04D
:102C300004FB1C224A72B94A4FF00A0CD2F84052E7
:102C4000D2F84822B5FBFCF7A8E0B44A4FF00A0CD2
:102C5000D2F84C52D2F85422B5FBFCF7B2FBFCFC84
:102C600020B1172A06D94FF0100804E0172DFAD822
:102C7000B84600E0E04681F8088018B1172A06D966
:102C8000102206E0172DFBD804FB175201E004FBCD
:102C90001C224A72A14A4FF00A0CD2F85052D2F8C4
:102CA0005822B5FBFCF779E09C4A4FF00A0CD2F8A9
:102CB000C051D2F8C821B5FBFCF7B2FBFCFC20B137
:102CC000172A06D94FF0100804E0172DFAD8B84695
:102CD00000E0E04681F8088018B1172A06D91022D2
:102CE00006E0172DFBD804FB175201E004FB1C2261
:102CF0004A728A4A4FF00A0CD2F8C451D2F8CC2159
:102D0000B5FBFCF74AE03C2D03D8B84603E03C2A6B
:102D10004AD94FF0100881F80A8090B33C2A05D9AF
:102D200002E004FB175203E0102201E004FB1C2226
:102D3000CA7289F80D60B0B389F8163058E5774A41
:102D40004FF00A0CD2F87052D2F87822B5FBFCF79B
:102D5000B2FBFCFC20B1172A06D94FF0100804E0A2
:102D6000172DFAD8B84600E0E04681F8088018B17F
:102D7000172A07D9102207E0172DFBD804FB17529A
:102D800002E013E004FB1C224A72644A4FF00A0C72
:102D9000D2F87452D2F87C22B5FBFCF7B2FBFCFCF3
:102DA0000028B4D1AFE708E0E046B4E73C2DBBD83B
:102DB000B7E703218AF80D10BDE7102089F8160047
:102DC00016E5574E0422727360B1564A0128977176
:102DD00082F807A00ED0022811D0032814D00428AE
:102DE00017D027E04F48B175877180F807A0A88AEF
:102DF000B083FDE414271772D5F8B4C20DE0142790
:102E00001772D5F8B8C208E015271772D5F804C2B2
:102E100003E015271772D5F808C24FF06408BCFB11
:102E2000F8F708FB17CC5772BCFBF4F704FB17C488
:102E30009772D472D5F8B042CC2C08D1012806D1B3
:102E400014241472102454729472D4727173D5F8CD
:102E50000042CC2C01D1032809D001280ED0032830
:102E60000CD0022801D00428AAD1B375C0E41520E3
:102E70001072102050729072D07271731020B07561
:102E8000B6E4274A274E4FF00E0C517386F807C060
:102E9000A8B322490128C96848D0022890D1224805
:102EA0009375406B60B304F03FFC29694FF47A7767
:102EB000084490FBF7F0307204F036FC29694FF0BB
:102EC0006408084490FBF7F107FB110191FBF8F04F
:102ED000707204F029FC2969084490FBF7F107FBA4
:102EE000110191FBF8F208FB121090FBF4F0B072A4
:102EF00004F01AFC2969084490FBF4F140E000E07A
:102F00002EE0094891753772D0F8001C6422B1FB9D
:102F1000F2F0707202FB10102FE000006823002016
:102F2000080000202015002060150020102090755A
:102F3000EB6FAA2B02D07072B07223E03772A868D0
:102F40006425B0FBF5F3737205FB1303B3FBF4F3D5
:102F5000B372B0FBF4F304FB1300F072518347E447
:102F60002869642208444FF47A71B0FBF1F13172A0
:102F7000B0FBF2F102FB11007172B0FBF4F1B1721F
:102F800004FB1100F07233E4F84A517320B1107A57
:102F900020B301282DD035E0DFF8D4C38CF80670BB
:102FA0008CF807B0D5F880008CF80870AA288CF847
:102FB000097007D010208CF80A008CF80B001674EA
:102FC000937515E4D5F89050B5FBF4F08CF80A0031
:102FD00004FB10508CF80B001174F1E7E448877182
:102FE00080F807B00472417280F80A9080F80B9064
:102FF00008E0DF48877180F807B004724772817279
:1030000080F80BE091751AE4D84D50B10128FAD13F
:10301000D74A19209771D4711072D648006AB0B19E
:103020000AE0D34A6973D448977182F807901772FF
:10303000A975C0684B4630B10128E4D1577291722E
:1030400082F80BE01DE451729372D37219E451724D
:1030500048464EE0C548C64B41739F71DA710C205B
:103060001872C648C2EBC20100EB810050F81C0C7C
:10307000FF2804D218B1BF494969914206D21020F5
:10308000587298720DE036E0AEE0CAE06422B0FB00
:10309000F2F102FB11005972B0FBF4F104FB1100D4
:1030A0009972D8721BE4B14AC0EB001364255173C6
:1030B000AF4A1B21D0711172B14901EBC30151F824
:1030C000781CB1FBF5F3537205FB1313B3FBF4F556
:1030D00004FB15339572D3724B1C08D039B102E052
:1030E000F5E00BE123E1A34989698142DAD210209E
:1030F0005072907290E0DFF87482DFF874C288F842
:103100000D108CF8072078B1012826D0022849D06C
:10311000032854D028B1012841D0022801D0032827
:10312000C0D188F8161009E69248B0F94C0B8CF81B
:103130000870B0F57A7F09DA642390FBF3F28CF81B
:10314000092003FB120292FBF4F033E009208CF813
:1031500009003FE08CF80B00E3E798F81500AA2877
:1031600002D0CC2812D01AE08CF80870D5F89C1048
:103170006422B1FBF2F08CF8090002FB1010B0FBE6
:10318000F4F104FB11008CF80A1006E08CF80870CA
:1031900010208CF809008CF80A008CF80B0088F8D5
:1031A0001630CBE58CF808B08CF80970D5F8A02063
:1031B000B2FBF4F08CF80A0004FB1020CAE798F880
:1031C00018008CF80740AA288CF8086005D08CF805
:1031D000091048468CF80A00BCE78CF809708CF896
:1031E0000A108CF80BE09CE76048614A614B417320
:1031F00082F8079093F8D85B85B181754671177294
:10320000596C6423B1FBF3F0507203FB1010B0FB58
:10321000F4F104FB11009172D0728FE541711772C5
:1032200065E7534DAF71EE71504E2A7290B151491E
:103230000128896829D0022836D00328B1D1481C3A
:103240006F7241D0C1F30310A87201F00F00E87251
:10325000B27573E547487173C068FF280DD26422C8
:10326000B0FBF2F1697202FB1101B1FBF4F1A9723A
:10327000B0FBF4F104FB1101E97208B1FF2890D111
:1032800010206872A872E87258E5481C08D0080F30
:103290006872C1F30360A872C1F30350E872EDE5F0
:1032A00010206872A872F9E7481C09D0C1F30340E6
:1032B0006872C1F30330A872C1F30320E872D4E549
:1032C00010206872A872F9E71020A872BFE7274E95
:1032D0002748284A71738771C57180F808A013695F
:1032E0006425B3FBF5F2427205FB1232B2FBF4F334
:1032F00004FB13228372C272B1751FE51B4A68B1C9
:1033000001288AD11A48042353738771C77119247D
:103310000472102444728372C67273E614485173A7
:103320008771C7710372062343720323F3E7104EBC
:1033300059731448B77186F807A037720088642162
:10334000B0FBF1F1642801D30D4600E01125757240
:10335000642505FB1101B1FBF4F1B172B0FBF4F18E
:1033600004FB1100F0729A75E8E4000008000020E8
:103370002015002060150020401500206C21002041
:10338000882100209A0000202DE9F05FFE4F0122E5
:10339000FE4D87F8C022FE4C2846697AA67AE37A69
:1033A000C07A4FF010084FF00A0A4FF0110B4FF09F
:1033B000000904296BD00BDC012910D0A4464FF082
:1033C000640B9CF809C0022912D003290FD143E0F5
:1033D00007297AD0082977D0102908D1AAE084F8E3
:1033E000088084F8098084F80A8084F80B80A2E0C1
:1033F00020B1012807D0032813D09CE0A5F81C9029
:10340000C7F8149097E0BCF1100F05D0102E03D030
:10341000102B01D014200CE014202072D7F8B41225
:103420000DE0BCF1100F06D0102E04D0102B02D0EE
:103430001520207283E015202072D7F80412B1FB0A
:10344000FBF060720BFB1010B0FBFAF10AFB1100ED
:10345000A172E0726A716EE001286CD1BCF1100FAC
:1034600006D0102E04D0102B02D084F8098017E06B
:10347000B868B0FBFBF10BFB110361725146B3FB63
:10348000F1F3A372B0FBFAF30AFB130018E068BB78
:10349000102E0AD0102B08D084F808B084F809B098
:1034A00084F80A8084F80B800BE084F808B084F874
:1034B00009B0D7F89010B1FBFAF0A0720AFB101017
:1034C000E072AA7137E000E011E0032801D004287F
:1034D00031D1B0484FF0FF3140F8F01F816703F061
:1034E000E7FE85F805900020FFF745F923E010B1CD
:1034F000012806D00FE0A849A1F84E9B85F8059059
:1035000019E0D7F88400CC2809D0CC2068756A71FE
:103510000020FFF730F9E87A022802D00BE0AA2059
:10352000F4E70D20207284F809B084F80A9084F83A
:103530000B9000E018B1687A172807D015E084F8DE
:10354000098084F80A8084F80B8083E7E87A0328EE
:1035500019D10021084606F056FE1021002006F081
:1035600052FE2021002006F04EFE687A29280AD15A
:10357000E87A012807D1072020720620607208200F
:10358000A07284F80B901BE42DE9F05F7F4F0620BA
:103590003946F870787A00257D4ECA7A172805D109
:1035A000012A11D0032A0FD0042A0DD0764CBB4635
:1035B0004FF0010AF02784F8C0A24FF0CC084FF07A
:1035C000AA09012833D06DE1012A0ED07048032AE0
:1035D000817AC07A00EB01101AD0042A04D1C0B25B
:1035E000062107F0EBFF7D7103E40021084607F098
:1035F000E5FFF07AB17A00EB0110C0B2012107F0CB
:10360000DDFF707A317A00EB0110C0B20221E8E7E9
:10361000C0B2042107F0D2FF717A307A01EB0010BA
:10362000C0B2052107F0CAFFF0790321D9E7307A4B
:10363000717A00EB800001EB4000FF218BF8011054
:103640009BF814105B46082901D10E211975DFF88B
:1036500040C1002A1A7D9CF80A109CF80BC001EBAF
:1036600081010CEB410103D08AB3012A76D095E0A9
:1036700012B1012A16D02BE01F2909D1042827D026
:10368000062825D0092823D00B2821D002281FD0B6
:103690001E2901D102281BD0B02801D0C4E95B014A
:1036A0009F7315E01F2909D1042811D006280FD0D7
:1036B00009280DD00B280BD0022809D01E2901D1D2
:1036C000022805D0B028EBD0C4E98701E8E72EE056
:1036D000A2F1020CBCF1050F1ED8022A0AD0032A5F
:1036E0000BD0042A0CD0052A0DD0062A0ED0072AAA
:1036F0000FD010E0C4E95F010DE0C4E963010AE006
:10370000C4E9670107E0C4E98B0104E0C4E98F0163
:1037100001E0C4E993019F730E2A02D00F2A03D05F
:1037200068E0C4E9700164E0C4E99C0161E01F291C
:1037300009D1042832D0062830D009282ED00B28F1
:103740002CD002282AD01E2901D1022826D0B02848
:1037500001D0C4E95D019F7320E0FFE71F2909D173
:1037600004281BD0062819D0092817D00B2815D0FB
:10377000022813D01E2901D102280FD0B028EAD088
:10378000C4E98901E7E70000682300200800002061
:10379000201500208821002060150020A2F1020CD5
:1037A000BCF1050F1ED8022A0AD0032A0BD0042A26
:1037B0000CD0052A0DD0062A0ED0072A0FD010E013
:1037C000C4E961010DE0C4E965010AE0C4E96901E9
:1037D00007E0C4E98D0104E0C4E9910101E0C4E916
:1037E00095019F730E2A02D00F2A17D002E0C4E978
:1037F00072019F73A121597012F0FF0111D00129AC
:1038000017D00C291DD00D2923D0082929D009292A
:103810002FD00A2935D00B293BD041E0C4E99E01C5
:10382000E7E7B02802D0C4F85C9139E0C4F85C81C5
:1038300036E0B02802D0C4F80C9231E0C4F80C8213
:103840002EE0B02802D0C4F8AC9129E0C4F8AC81D5
:1038500026E0B02802D0C4F85C9221E0C4F85C8273
:103860001EE0B02802D0C4F8D09119E0C4F8D0818D
:1038700016E0B02802D0C4F8E89111E0C4F8E8815D
:103880000EE0B02802D0C4F8809209E0C4F880822B
:1038900006E0B02802D0C4F8989201E0C4F89882FB
:1038A00003F079FD9BF80900022840D1717A642069
:1038B0004143B07A5B4600EB800001EB4000F17AB7
:1038C000084482B29BF80B0040B101280AD00228BC
:1038D00013D0032817D0042820D024E0B3F91C000B
:1038E00060610EE0102905D0C4F8B4229F73C4F8BB
:1038F000B09218E0C4F8B08215E0102913D0C4F8D3
:10390000B8229F730FE0102905D0C4F804229F73DA
:10391000C4F8009207E0C4F8008204E0102902D045
:10392000C4F80822EDE78BF8055003F034FD9BF84E
:103930000900FE4F032850D19BF80B00012822D12B
:103940009BF806005946012804D0707A102801D04F
:103950000878E8B1087801287FF446AE707A10281C
:1039600027D08D71BBF81A10E16064214843B17A09
:1039700001EB810100EB4100F17AC4F87C9008442E
:10398000A06003F008FD9BF80B00022816D024E08D
:1039900087F8F1AB1E22CA708BF806A087F8F85B97
:1039A00087F8F95B87F8F35B87F8F45B87F8F55BDA
:1039B00033E48BF80650C4F87C80E2E7717A642027
:1039C0004143B07A00EB800001EB4000F17A0844FB
:1039D000E168401A206103F0DEFC9BF8090004282E
:1039E0002DD19BF80B00E8B9B07A102814D0F17AE9
:1039F00000EB800001EB4000C4F890008BF805500C
:103A00008BF80650C4F8809003F0C5FC9BF80B00BF
:103A100040B9B07A102812D18BF80650C4F88080D3
:103A200003F0B9FC9BF80B10012908D19BF80800A2
:103A3000D846C4F8940003F0AEFC88F805509BF813
:103A40000900D846082838D198F80B0001281BD166
:103A5000B07A10280FD0717A6422514300EB8000B5
:103A600001EB4000F17A0844B0F5FA7F03D8C4F8BE
:103A70009C0088F8055088F8055098F81500C4F89F
:103A800084000020FEF777FE98F80B000A224146DA
:103A9000022802D0032816D00DE0B07AF37A00EBAA
:103AA000800003EB4000C4F8A0000F2801D9C4F83F
:103AB000A02088F8055003F06EFC98F809004446F1
:103AC000092812D025E0087EC4F8A400F271AA28C3
:103AD00086F808A004D075720F20B072F072E8E783
:103AE00011207072B5721220F8E7717A6420414398
:103AF000B07A00EB800001EB4000F17A0844411EEF
:103B00007E293FF655AF7864C0B206F0E7FF03F0B8
:103B1000A0FB607A102818D1E07AA0B9717A6420ED
:103B20004143B07A00EB800001EB4000F17A084499
:103B3000FF2802D281B2F86001E02946FD60387C9E
:103B400007F00AFA657103F084FBA046607A784CAE
:103B500012281ED188F8055088F8115098F81710CF
:103B60004FF0FF30072912D2DFE801F011040709F6
:103B70000B0E1000C4F808A009E0A56007E0A060E3
:103B800005E0C4F810A002E0256100E0206103F028
:103B900041FB98F80900132808D103F011FC65488F
:103BA0000168654A01F4E0611143016098F8090079
:103BB00005281DD188F8055088F8165098F80B0094
:103BC000414610B101280CD00EE0C879E060012810
:103BD00001D010B108E0102000E0082088F816009D
:103BE00002E098F80F00386203F014FB03F031FB99
:103BF00098F809004446262811D1717A642041437F
:103C0000B07A00EB800001EB4000F17A08443861A3
:103C100003F01FFBB88981B2387C07F09DF9607A08
:103C200029281BD1E07A012816D16571717A6420A8
:103C30004143B07A414D00EB800001EB4000F17A46
:103C400008443864284406F05BFB3D49386C28443E
:103C5000098807F0D7FEB86403F0FBFA607A0728FA
:103C60007FF4A6AE707A102806D1B17A102903D15C
:103C7000F17A10293FF49CAEE17A032901D004299E
:103C8000EED164214843B17A01EB810100EB4100A0
:103C9000F17A08442B4941F8F00F8867BDE8F05FDE
:103CA00003F006BB30B5284DFF222B46697ADB7A3C
:103CB000172902D0012902D002E0012B11D10022E4
:103CC00017290ED0022919D0112917D0032915D090
:103CD000062913D007290DD008290FD010290DD09F
:103CE0000DE0032B02D0042B02D011E001220FE0E3
:103CF00002220DE0042B01D0032B09D1012204295B
:103D000003D0292902D1012B02D102220929EDD0A9
:103D10000D4CA47BF0B1641CE0B2A873172901D14B
:103D2000032B13D0032813D830BD000060150020EA
:103D3000401500200CED00E00400FA0558FD0400D9
:103D40009A00002088210020080000200428EBD9D8
:103D5000AA73E9E7641E944208DA0320A8731729BE
:103D6000E2D1032BE0D10420A873DDE7AC73DBE7DD
:103D7000012805D0022805D0032805D0002070476F
:103D8000642070470A2070470120704738B102282C
:103D900005D0012805D0032803D0002070470A2051
:103DA000704701207047012807D0032805D002285A
:103DB00005D0042803D0002070470A207047012056
:103DC00070472DE9F05FDFF8F0B3DFF8F0930121E1
:103DD00004468BF8C01299F80900FF270A26F84D0F
:103DE0004FF0640817287DD199F80B004B46012845
:103DF00071D1A87AE97A00EB800001EB4000C1B2F2
:103E0000287A6A7A00EB800002EB4000C2B2484692
:103E1000807B4CB308B1012810D1FFF7B7FF1044E5
:103E20001728987B04D8FFF7B1FF1044C2B205E011
:103E3000FFF7ACFF1044182800D10022987B02281D
:103E400001D0032838D1FFF7A1FF08443B28987B15
:103E500003D8FFF79BFF084426E0FFF797FF0844CD
:103E60003C2829D1002127E008B101280FD1FFF714
:103E70008DFF101A987B04D4FFF788FF101AC2B286
:103E800005E0FFF783FF101A401C00D11722987B32
:103E9000022801D003280FD1FFF778FF081A987B7A
:103EA00004D4FFF773FF081AC1B205E0FFF76EFFF5
:103EB000081A401C00D13B21B1FBF6F0A87206FBAA
:103EC0001010E872B2FBF6F0287206FB1020687240
:103ED000587A172887D1D87A994603287CD1E97A6D
:103EE000A87A00E082E100EB800001EB4000C2B262
:103EF000287A697A00EB800001EB4000EB79C1B2CF
:103F000089F8123099F80E004B4694B3012801D07D
:103F1000022810D1FFF747FF08440C28987B04D8EB
:103F2000FFF741FF0844C1B205E0FFF73CFF08443A
:103F30000D2800D10121987B032801D004286FD1DE
:103F400001290BD0032909D0052907D0072905D05D
:103F5000082903D00A2901D00C2911D1FFF723FF2A
:103F600010441F28987B05D8FFF71DFF1044C2B2EC
:103F700006E046E0FFF717FF1044202800D1012299
:103F8000042905D0062903D0092901D00B2911D114
:103F9000987BFFF708FF10441E28987B04D8FFF792
:103FA00002FF1044C2B205E0FFF7FDFE10441F28D7
:103FB00000D10122022977D1824890F8E50B8007D1
:103FC000987B11D0FFF7EFFE10441C2805D8987B92
:103FD000FFF7E9FE10447AE0B5E0987BFFF7E3FED7
:103FE00010441D280BD084E0FFF7DDFE10441D288F
:103FF000EDD9987BFFF7D7FE10441E2879D1012216
:1040000077E0012801D0022810D1FFF7CCFE081A72
:104010000128987B05DBFFF7C6FE081AC1B205E050
:1040200042E0FFF7C0FE884200D10C21987B0328B4
:1040300001D0042838D101290BD0032909D0052942
:1040400007D0072905D0082903D00A2901D00C2957
:104050000FD1FFF7A8FE101A0128987B04DBFFF7A9
:10406000A2FE101AC2B204E0FFF79DFE904200D1FA
:104070001F22042905D0062903D0092901D00B29C4
:1040800010D1987BFFF78FFE101A0128987B04DB74
:10409000FFF789FE101AC2B204E0FFF784FE9042D7
:1040A00000D11E22022908D004291FD006291DD0C4
:1040B00009291BD00B2919D01BE0987BFFF773FE51
:1040C000101A0128987B04DBFFF76DFE101AC2B2AC
:1040D0000FE0FFF768FE90420BD13A4890F8E50BED
:1040E000800701D11D2218E01C2216E01F2A00D1F2
:1040F0001E22344890F8E50B800708D002290CD125
:104100001F2AF1D01E2AEFD01D2AEDD005E002298A
:1041100003D11F2AE6D01E2AE4D0B2FBF6F0A87223
:1041200006FB1020E872B1FBF6F0287206FB1010B7
:104130006872244890F8E50B05F0DCFFE87199F807
:104140000900172852D199F80B004B4604286ED16C
:10415000A87AE97A00EB800001EB4000C1B2287A2E
:104160006A7A00EB800002EB4000C2B2987BA4B1F7
:10417000022801D003282DD1FFF708FE0844632848
:10418000987B03D8FFF702FE084412E0FFF7FEFD1C
:10419000084464281ED100211CE0022801D0032815
:1041A00018D1FFF7F3FD081A987B0DD4FFF7EEFD49
:1041B000081AC1B20EE000006823002008000020A9
:1041C0002015002060150020FFF7E0FD081A401CB4
:1041D00000D16321B1FBF6F0A87206FB1010E87263
:1041E000B2FBF6F0287206FB1020687299F80900FD
:1041F0004B4601287CD1A87AE97A00EB800001EBDC
:104200004000C2B2287A697A00EB800001EB4000DE
:10421000C1B2187D002C6CD0012871D8B02901D111
:10422000B02A05D0987B30B1012804D014E08AE28E
:104230000122114664E0FFF7A9FD08440C28987B91
:1042400004D8FFF7A3FD0844C1B205E0FFF79EFDC7
:1042500008440D2800D10121987B022801D00328B1
:104260004ED101290BD0032909D0052907D00729F0
:1042700005D0082903D00A2901D00C2910D1FFF755
:1042800085FD10441F28987B04D8FFF77FFD10445C
:10429000C2B205E0FFF77AFD1044202800D10122C8
:1042A000042905D0062903D0092901D00B2911D1F1
:1042B000987BFFF76BFD10441E28987B04D8FFF70E
:1042C00065FD1044C2B205E0FFF760FD10441F28F1
:1042D00000D10122022913D1987BFFF757FD10442A
:1042E0001D28987B06D8FFF751FD1044C2B207E0A5
:1042F000D4E1B0E0FFF74AFD10441E2800D10122AE
:10430000187DA0F1020CBCF1090F02D90E3801286A
:1043100032D8B02901D1B02A04D0987B28B1012825
:1043200003D013E00022114626E0FFF72FFD0844DA
:104330001728987B04D8FFF729FD0844C1B205E08F
:10434000FFF724FD0844182800D10021987B02289B
:1043500001D0032810D1FFF719FD10443B28987BAA
:1043600004D8FFF713FD1044C2B205E0FFF70EFDBD
:1043700010443C2800D10022187D0C38012869D84F
:10438000B02901D1B02A71D0987B08B1012810D191
:10439000FFF7FCFC08440C28987B04D8FFF7F6FCD8
:1043A0000844C1B205E0FFF7F1FC08440D2800D134
:1043B0000121987B022801D003284BD101290BD081
:1043C000032909D0052907D0072905D0082903D0DA
:1043D0000A2901D00C2910D1FFF7D8FC10441F285E
:1043E000987B04D8FFF7D2FC1044C2B205E0FFF777
:1043F000CDFC1044202800D10122042905D0062933
:1044000003D0092901D00B2911D1987BFFF7BEFCFD
:1044100010441E28987B04D8FFF7B8FC1044C2B2A1
:1044200005E0FFF7B3FC10441F2800D10122022948
:1044300010D1987BFFF7AAFC10441D28987B03D865
:10444000FFF7A4FC104416E1FFF7A0FC10441E285F
:1044500000D1012216E101286BD8B02901D1B02A80
:1044600005D0987B30B1012804D013E0A8E00122E8
:1044700011465EE0FFF78AFC081A0128987B04DBEE
:10448000FFF784FC081AC1B204E0FFF77FFC884202
:1044900000D10C21987B022801D0032849D10129A1
:1044A0000BD0032909D0052907D0072905D00829F1
:1044B00003D00A2901D00C290FD1FFF767FC101A8D
:1044C0000128987B04DBFFF761FC101AC2B204E0FC
:1044D000FFF75CFC904200D11F22042905D0062979
:1044E00003D0092901D00B2910D1987BFFF74EFC8E
:1044F000101A0128987B04DBFFF748FC101AC2B29F
:1045000004E0FFF743FC904200D11E22022910D1A3
:10451000987BFFF73BFC101A0128987B04DBFFF720
:1045200035FC101AC2B204E0FFF730FC904200D113
:104530001D22187DA0F1020CBCF1090F02D90E3822
:10454000012830D8B02901D1B02A04D0987B28B1F5
:10455000012803D012E00022114624E0FFF716FCE8
:10456000081A987B04D4FFF711FC081AC1B205E0C1
:10457000FFF70CFC081A401C00D11721987B022879
:1045800001D003280FD1FFF701FC101A987B04D447
:10459000FFF7FCFB101AC2B205E0FFF7F7FB101A99
:1045A000401C00D13B22187D0C3801286AD8B02964
:1045B00001D1B02A04D0987B28B1012803D012E0A1
:1045C000012211465EE0FFF7E1FB081A0128987B03
:1045D00004DBFFF7DBFB081AC1B204E0FFF7D6FBF0
:1045E000884200D10C21987B022801D0032849D1B0
:1045F00001290BD0032909D0052907D0072905D0A7
:10460000082903D00A2901D00C290FD1FFF7BEFBDE
:10461000101A0128987B04DBFFF7B8FB101AC2B20E
:1046200004E0FFF7B3FB904200D11F22042905D01C
:10463000062903D0092901D00B2910D1987BFFF757
:10464000A5FB101A0128987B04DBFFF79FFB101ACB
:10465000C2B204E0FFF79AFB904200D11E22022969
:1046600010D1987BFFF792FB101A0128987B04DB8E
:10467000FFF78CFB101AC2B204E0FFF787FB9042F1
:1046800000D11D22B2FBF6F0A87206FB1020E872E2
:10469000B1FBF6F0287206FB10106872587A4FF0E2
:1046A0000009042833D1D87AC8BBA97A10294AD086
:1046B000E87A102847D001EB810100EB4100C1B23C
:1046C000987B6CB1022801D0032817D1FFF75EFB5D
:1046D00008442D2812D8987BFFF758FB08440CE0BB
:1046E000022801D0032809D1FFF750FB081A01283E
:1046F00004DB987BFFF74AFB081AC1B2B1FBF6F066
:10470000A87206FB1010E872587A042808D0C0B2CC
:1047100005281AD04FF0640A03283CD00CE1FFE7CB
:10472000D87A01280FD13CB11120687285F80A901F
:104730001220E872012005E085F809900F21A97286
:104740004846E9721872BDE8F09FD87A50B1012846
:10475000F9D1C4B11120687285F80A901220E8726C
:10476000012016E03CB11120687285F80A901220F1
:10477000E872012005E085F809900F21A9724846EA
:10478000E972D871DFE785F809900F21A9724846D0
:10479000E972D873D7E7FE49C87A012872D1DBF8ED
:1047A0007C005A46AA28CED1012008706B7A64207A
:1047B0004343A87A00EB800003EB4000EB7A1844F7
:1047C00087B2887B54B3012803D0022801D0032884
:1047D00048D1FFF7CDFA4B8B4FF47A7C184413691C
:1047E0001844604505DA887BFFF7C2FA4B8B184402
:1047F0004883887BFFF7BCFA12694B8B38441A4414
:1048000090422FDA887BFFF7B3FA3844604529D20B
:10481000887BFFF7ADFA384487B223E0012803D044
:10482000022801D003281DD1FFF7A2FA381A012867
:104830000BDB887BFFF79CFA381AB0F57A7F04DA35
:10484000887BFFF795FA381A87B2887BFFF790FAD2
:104850004A8B101AB84205DB887BFFF789FA4A8B2E
:10486000101A4883B7FBFAF068720AFB1070B0FBAD
:10487000F6F0A872B7FBF6F006FB1070E872487A03
:10488000032859D1C87A022884D1287AEA7A00EB21
:104890004003C3EBC01002EBC0036A7A64204243BA
:1048A000A87A00EB800002EB40001844DBF80C20F3
:1048B0005B469042FFF466AF4FF47A729042BFF4C9
:1048C00061AF87B2887B7CB1012803D0022801D078
:1048D00003281CD1FFF74CFA3844904217D2887B4A
:1048E000FFF746FA384411E0012803D0022801D02E
:1048F00003280CD1FFF73CFAA7EB000CD868401C4A
:10490000844504D3887BFFF733FA381A87B2B7FBA4
:10491000F2F002FB107128725046B1FBF0F169729F
:10492000B7FBFAF10AFB1170B0FBF6F0A872B7FB07
:10493000F6F006FB1070E8729548407A022841D1E3
:10494000F4B3934981F81090A87A102808D1E87A36
:10495000102812D10020FDF70EFFA87A10280CD0E5
:10496000E87A102809D06A7A64214A43A97A01EBCF
:10497000810102EB4101084487B2854A907B0128FE
:1049800003D0022801D003281CD1D17A11B101290A
:1049900019D02AE0FFF7ECF9B2F91C10084464289A
:1049A00010DC907BFFF7E4F9B2F91C10084410F119
:1049B000640F07DB907BFFF7DBF9918B084400E085
:1049C0005CE09083F6E0A97A10297DD0E97A10297D
:1049D0007AD0FFF7CDF9C119DBF8B802814204D2D1
:1049E000907BFFF7C5F9384487B2D07A02280CD102
:1049F000907BFFF7BDF9C119DBF8B402814204D9FD
:104A0000907BFFF7B5F9384487B2D07A032812D1EA
:104A1000A87A102858D0E87A102855D0907BFFF754
:104A2000A7F9C119DBF80802814204D9907BFFF78E
:104A30009FF9384487B2D07A04280CD1907BFFF7D5
:104A400097F9C119DBF80402814204D2907BFFF789
:104A50008FF9384487B2A87A102835D0E87A102820
:104A600032D0B7FBFAF068720AFB1070B0FBF6F0B8
:104A7000A872B7FBF6F006FB10709AE0444F87F877
:104A80001090A87A102805D1E87A102802D10020C9
:104A9000FDF771FE687A6421AB7A484303EB83012A
:104AA000EA7A00EB4100104481B2B87B012803D0C0
:104AB000022801D003287DD197F80BC0BCF1000F6C
:104AC00005D0BCF1010F00E017E017D026E0FFF79A
:104AD0004FF9B7F91C10081A10F1640F6ADBB87BA4
:104AE000FFF746F9B7F91C10081A642862DCB87B96
:104AF000FFF73EF9B98B081AB8835BE0102B59D049
:104B0000102A57D0FFF734F90A1ADBF8B8028242AC
:104B100004D2B87BFFF72CF9081A81B2F87A022880
:104B20000CD1B87BFFF724F90A1ADBF8B4028242F1
:104B300004D9B87BFFF71CF9081A81B2F87A032868
:104B400012D1A87A102835D0E87A102832D0B87B54
:104B5000FFF70EF90A1ADBF80802824204D9B87B83
:104B6000FFF706F9081A81B2F87A04280CD1B87B4D
:104B7000FFF7FEF80A1ADBF80402824204D2B87B7F
:104B8000FFF7F6F8081A81B2A87A102812D001E0CF
:104B900008000020E87A10280CD0B1FBFAF0687207
:104BA0000AFB1010B0FBF6F0A872B1FBF6F006FBA2
:104BB0001010E872FB4F787A08287DD1F87A022825
:104BC0002CD1A87AE97A00EB800001EB4000C1B259
:104BD000B87B6CB1022801D0032816D1FFF7D6F8B4
:104BE00008440F2811D8B87BFFF7D0F808440BE031
:104BF000022801D0032808D1FFF7C8F8081A04D406
:104C0000B87BFFF7C3F8081AC1B2B1FBF6F0A8727F
:104C100006FB1010E872787A08284DD1F87A01283E
:104C200049D187F81090A87A102805D1E87A102881
:104C300002D10020FDF79FFD697A64204143A87AE4
:104C400000EB800001EB4000E97A084464282FD88B
:104C500081B2B87B7CB1012803D0022801D003289F
:104C600019D1FFF785F80844642814D8B87BFFF7FA
:104C70007FF808440EE0012803D0022801D0032861
:104C800009D1FFF775F8081A012804DBB87BFFF794
:104C90006FF8081A81B2B1FBFAF20AFB1210B0FBEE
:104CA000F6F06A72A872B1FBF6F006FB1010E8721B
:104CB000787A082849D100E047E0F87AF0BBBA4991
:104CC0004FF47A72B1F94C0B9042BFF65BADB87BF2
:104CD0009CB1012803D0022801D0032821D1FFF77D
:104CE00047F8B1F94C3B184490421ADAB87BFFF709
:104CF0003FF8B1F84E2B104411E0012803D00228F0
:104D000001D003280DD1FFF733F8B1F94C2B101A5D
:104D100007D4B87BFFF72CF8B1F84E2B101AA1F886
:104D20004E0BB1F94C0B90FBFAF169720AFB1101C1
:104D300091FBF6F1A97290FBF6F100E009E006FBA9
:104D40001100E872787A082803D0C0B2092815D07B
:104D500053E0F87A03287FF415AD3CB11120687256
:104D600085F80A901220E872AA2005E085F80990DB
:104D70000F20A872E872CC203876E4E48A48406CB0
:104D8000401E7E28F9D8697A64204143A87A00EB56
:104D9000800001EB4000E97A084481B2B87B7CB125
:104DA000012803D0022801D0032819D1FEF7E0FF23
:104DB00008447F2814D8B87BFEF7DAFF08440EE0D9
:104DC000012803D0022801D0032809D1FEF7D0FF23
:104DD000081A002804DDB87BFEF7CAFF081A81B262
:104DE000B1FBFAF068720AFB1010B0FBF6F0A87283
:104DF000B1FBF6F006FB1010E872787A102847D164
:104E0000F87A0028B9D1687A642100FB01F2A97A06
:104E100001EB810102EB4101EA7A1144FF2901D93A
:104E20001028AAD189B2102800D10021B87B84B102
:104E3000012803D0022801D003281CD1FEF798FFD7
:104E40000844FF2817D2B87BFEF792FF084481B2CE
:104E500011E0012803D0022801D003280BD1FEF76E
:104E600087FF081A012804DBB87BFEF781FF081AC8
:104E700081B201B90121B1FBFAF068720AFB10108E
:104E8000B0FBF6F0A872B1FBF6F006FB1010E8726A
:104E9000787A26282BD029285ED00728B2D1F87A34
:104EA000042801D00328ADD1687A10287ED0AA7AD0
:104EB000102A7BD0E97A102978D06423584302EB7A
:104EC000820200EB42000844C1B2B87B012803D043
:104ED000022801D0032895D1CCB3FEF749FF08443E
:104EE000F7286FD8B87BFEF743FF084469E0F87AEB
:104EF00004212CB1401CC0B2F87205280BD802E086
:104F000048B1401EF872F87A05280AD2DFE800F0AE
:104F1000050709202200F972F5E7142000E032208D
:104F2000804687F80D901120A8710520E8711320A4
:104F30002872B8FBFAF068720AFB1080B0FBF6F139
:104F400006FB1100A972E87287F816901AE42FE0A8
:104F50007D20E5E7FA20E3E7F87A0128F6D1697ABF
:104F600064204143A87A00EB800001EB4000E97A1D
:104F70000844B0F57A7FE9D280B20CB1401C00E061
:104F8000401E072180B22972B0FBFAF169720AFB58
:104F90001101B1FBF6F1A972B0FBF6F106FB1100AD
:104FA0001CE003E0080000206015002000218CE7D1
:104FB000FEF7DEFE081A002804DDB87BFEF7D8FEF7
:104FC000081AC1B2B1FBFAF068720AFB1010B0FB0C
:104FD000F6F0A872B1FBF6F006FB1010E872CCE612
:104FE0002DE9F84F01210091FF494FF0040E4FF0D9
:104FF000A00AFE4C8B68DFF8F893E17A94F805B0CC
:10500000491CCAB299F8E8CB03270025617A01262A
:10501000001F1B286FD2DFE800F0F148F26E99EF15
:105020000E1A272728EE276E757D6E6EDAEDA9C061
:105030008C90EC6EEB005B1C16D1BBF1010FFBD129
:10504000BCF1000F01D00529F6D100200AE05B1C5D
:10505000F2D1BBF1010FEFD1BCF1000F01D0052956
:10506000EAD10120FEF7ADFE86E1DF4E5B1CFBD1ED
:10507000BCF1000F0AD1A1B128290BD02929F3D006
:105080000020FEF70FFEB068401CEDD1607A40B101
:105090002828E9D1E07A401CC0B2E072012828D863
:1050A00001E028201DE06571BEE0DFF83C835B1C59
:1050B000DAD1BCF1000F0BD171B12829D4D0292944
:1050C0000AD00120FEF7EEFDD8F80800401CCBD135
:1050D000607A08B12928C7D1A773607A292802D03D
:1050E0002920607205E0E07A401CC0B2E07201281D
:1050F00002D9E572D7E73DE1022801D00128D2D1DB
:10510000667191E05B1CAFD1BCF1000FACD11320F4
:10511000607289E05B1CA7D1BCF1000FA4D1E674DA
:1051200017206072E672A77384F801A00520A070B2
:10513000E6E76571FEF728FA1EE15B1C94D1BCF12D
:10514000000F02D12674FEF71FF915E15B1C6ED12A
:1051500049B105296BD1E272012A00D9E57200201C
:10516000FDF709FBFDE005206072F7E75B1C5ED1EF
:1051700009B107295BD1F020A073072902D00720CD
:10518000607202E0E272042A01D9E6728BE7032A18
:1051900001D0042A87D16671EAE05B1C47D109B1CE
:1051A000042944D19348A77384F801A090F894008F
:1051B0002072042902D084F809E046E0E272012A54
:1051C00043D80020FDF7D7FA99F8E80BC8E05B1C3C
:1051D0002DD109B110292AD184F801A0A773102973
:1051E00002D01020607230E0E272032A2DD8E8E786
:1051F0007AE046E02BE085E01AE000E0B3E05B1CDB
:1052000015D109B1062912D184F801A006206072D7
:105210007948267565718069032805D3764800684A
:10522000FF2801D0002883D10020FDF7A4FAA3E0D5
:105230005B1C13D109B1032910D1A773032901D035
:10524000677202E0E272022ABBD9E572B9E75B1C21
:1052500002D121B1172902D0FDF76DFA8CE0A773B6
:1052600084F801A0172902D01720607202E0E272D0
:10527000042A01D9E672A4E7032AA2D184F80EE039
:105280009FE75B1C78D109B1012975D1FF20A77375
:105290006070012903D066722573257591E7E2726B
:1052A000012A03D9E572207B401C2073207B08284B
:1052B00003D00F2804D925730AE00E20207307E0DD
:1052C000012808D0022808D0032808D0042809D0D3
:1052D000207B207575E70220FBE7277571E784F8CE
:1052E00014E06EE726756CE709B1122944D1E07D20
:1052F0001221401CC0B2E0756172667103283BD96F
:10530000E67539E05B1C37D161BB26206072D9F8A5
:105310001000C84664280ED004DC142807D03228B8
:1053200010D106E07D2809D0FA280BD108E0E572FB
:1053300008E0E67206E00221E17203E0E77201E0B4
:1053400084F80BE0B0F5FA7F02D808B1401C02D116
:105350006420C8F810000020FDF70DFA98F8E80B5B
:1053600000B9667108E000297FF49EAE09206072E2
:10537000A77359E7002000900098BDE8F88F70B53A
:105380001E4D00242868194EC0074ED0142005F089
:10539000E6F92868C00752D00520B070286880045C
:1053A00000D501242868C00401D544F0020428680F
:1053B000000501D544F004042868400501D544F0F7
:1053C00008042868800701D544F010040A20F07012
:1053D000062005F082FF2046FFF702FE01282ED1AD
:1053E0000348016A01290BE0401500200800002055
:1053F00060150020682300206C210020080C01406B
:105400001DD190F8040C002819D1564C012204211A
:10541000204602F0B4FF8C2005F0A1F92046BDE83B
:1054200070400022042102F0AABFF078002806D1C3
:10543000FDF781F9BDE87040022005F04EBF70BD58
:10544000002301221946184608F0D9FB0022C82380
:105450001146104608F0D3FB434C444DA07820B9C8
:1054600095F8F10B08B9FFF78AFFFCF742FB002221
:1054700032231146104608F0C2FBEFE72DE9F04158
:105480003B4D04464FF47A7601283AD002F04CF9AD
:105490002969084490FBF6F0DFF8D8806427012CD6
:1054A00088F808002FD002F03FF92969084490FBE2
:1054B000F6F106FB110090FBF7F00A2688F80900C8
:1054C000012C28D002F030F92969084490FBF7F14B
:1054D00007FB110090FBF6F0474688F80A00012C04
:1054E00021D002F021F92969084490FBF6F106FB6E
:1054F0001100F8721C48012C19D008218175BDE8F3
:10550000F0811120C8E7A868B0FBF6F106FB110096
:10551000B0FBF7F0D1E7A868B0FBF7F107FB11008B
:10552000B0FBF6F0D8E7A868B0FBF6F1DFE7102192
:10553000E4E70D490320012248720C483C2380F81F
:10554000F12BCB708A71002180F8F81B80F8F91BD1
:1055500080F8F31B80F8F41B80F8F51B0846FDF774
:105560000AB9000000140140080000206015002066
:10557000682300202015002004F0A7F80023012252
:105580001946184608F03BFBF6E70000652807D0EF
:10559000662804D162484FF4007251B1026170472D
:1055A0004FF4807009B15F4901E05E49091D086050
:1055B00070474261704770B5044681685A480C29AB
:1055C00008D0806884F8500094F834000026012840
:1055D00002D005E00069F5E794F8400000B9E66301
:1055E00094F83100012832D094F8300001282ED0F0
:1055F000012584F831502079102828D0112826D090
:10560000122824D02068A0F16401642903D2C0B21A
:105610000121FFF7BBFFFF2084F8310084F83050F0
:10562000A0680A2814D00C2811D1606900280ED077
:10563000B4F8600000280AD184F852503B486665EF
:1056400084F85860C06AC0EB00108000E06570BD4F
:1056500084F842500A20606470BD70B5044690F929
:105660005000012800D000B90021A2682E480C2A61
:1056700018D0806884F85000C1EB0110800000252C
:10568000002818DD94F8301000290AD094F9311060
:10569000491C06D194F8341031B1A16B814200DA73
:1056A000A06370BD0069E5E7012104F8341FC4E977
:1056B0000105257370BD94F831000028FAD094F8E4
:1056C00030000028F6D084F8315020791028F1D02D
:1056D0001128EFD01228EDD02068643864280BD24E
:1056E00008F09EFD114A3C2182F8081C08F09CFD40
:1056F00020780021FFF74AFFFF2084F8310084F86A
:10570000305070BD4FF480720549530018B1054800
:1057100002600B6170470348001D02604B617047D7
:1057200000100140100801404015002060150020C5
:105730002DE9F04F83464FF0FF30DBF80840FF497A
:1057400005464FF000090C2C02D0D1F8801000E083
:10575000496FCC2960D0DFF8ECC30022F84FDCF8A9
:10576000146017E0C2EBC20107EB81018B69032BC8
:105770000FD20B79062B03D0072B01D0082B08D1B1
:10578000002D01DC91F90E508B7B012B01D191F999
:105790000E50521C9642E5D80C2C05D09CF83410C3
:1057A000002301F0FF0A31E09CF83010F8E7DBF845
:1057B0001010D940C90728D0002224E0C2EBC20C47
:1057C0000A2157F82C40B4FBF1F4B4FBF1F801FBCB
:1057D0001841994216D107EB8C018C69032C11D228
:1057E0000C79062C03D0072C01D0082C0AD10028F4
:1057F00001DC91F90E008C7B012C01D191F90E0096
:105800004FF00109521C9642D8D85B1C5345CEDBA1
:10581000B9F1000F00D12846BDE8F08F2DE9F05F07
:105820008346C84BC5480024596BD0F808A0894668
:105830001FFA8AF0012930D80022C14F9E4627E086
:10584000DBF81010D140C90721D00021DEF8146028
:105850001BE0C1EBC10C0A2357F82C50B5FBF3F544
:10586000B5FBF3F803FB185393420DD107EB8C0300
:105870009D69032D08D25B8A33B10CB91846012407
:10588000834201D918460124491C8E42E1D8521C9A
:105890009145D5D80CB1824502D301F045FF80B2C5
:1058A000BDE8F09F2DE9F04F8246A448A54A0023A9
:1058B0008468516BA0B21D468B46A6B2012921D83F
:1058C0000021DFF884E29146976914E0C1EB011CE6
:1058D0000EEBCC02DAF810C0D2F81080E04509D007
:1058E000D2F808C0BCF10A0F04D192F83020012A86
:1058F00000D10125491C8F42E8D81DB10022904FEC
:10590000CE462BE0304687E7DAF81010D140C907C1
:1059100023D00021DEF814901DE0C1EBC10C0A2554
:1059200057F82C60B6FBF5F6B6FBF5F805FB1865E5
:1059300095420FD107EB8C05AE69032E0AD2AD68F4
:1059400045B113B9281980B201232544854201D9F4
:10595000A8B20123491C8945DFD8521C9345D3D8EE
:105960000BB18442CFD9A0B256E72DE9F04F754B69
:1059700083460024D3F8000C596B814680B28A46D6
:10598000012902D91FFA89F046E700226C4F9E4692
:1059900027E0DBF81010D140C90721D00021DEF844
:1059A00014601BE0C1EBC10C0A2357F82C50B5FB67
:1059B000F3F5B5FBF3F803FB185393420DD107EB56
:1059C0008C039D69032D08D21B8A33B10CB918468C
:1059D0000124834201D218460124491C8E42E1D899
:1059E000521C9245D5D80CB10028CDD11FFA89F0B0
:1059F00012E72DE9F0470446984615460E46002763
:105A00000846DDF8209000F0B8FF18B9284600F0ED
:105A1000B4FF10B10020BDE8F0874A49AE4215D16D
:105A2000B8F1000F12D00127B9F1000F2ED0A5F563
:105A3000966301266A1F681E4FF0020CF02B02D3FA
:105A4000B5F5B47F22D2A2421DD915E0AE4203D2F1
:105A5000A64201D8AC42E6D3AE4217D9B8F1000F46
:105A600014D0A64202D8B4F5B46FDCD3AC42DAD37A
:105A70000CE081F8046C0FE0A04207D8AC4205D2DC
:105A800081F804CC08E08442F6D2F2E791F8040CE5
:105A900010B1032081F8040C3846BCE72DE9F84F1B
:105AA000284C0546254F94F8E20B94F8E11BC0EB17
:105AB000001001EB8006022085F84800A8684FF02E
:105AC00001084FF0000B0C2854D1D7F880024FF09A
:105AD0000709AA2822D1D7F8840201061ED594F816
